
SAME70.elf:     file format elf32-littlearm

Sections:
Idx Name          Size      VMA       LMA       File off  Algn
  0 .text         00000c18  00400000  00400000  00010000  2**2
                  CONTENTS, ALLOC, LOAD, READONLY, CODE
  1 .relocate     0000043c  20400000  00400c18  00020000  2**3
                  CONTENTS, ALLOC, LOAD, CODE
  2 .bss          000000bc  2040043c  00401054  0002043c  2**2
                  ALLOC
  3 .stack        00002000  204004f8  00401110  0002043c  2**0
                  ALLOC
  4 .heap         00000200  204024f8  00403110  0002043c  2**0
                  ALLOC
  5 .ARM.attributes 0000002e  00000000  00000000  0002043c  2**0
                  CONTENTS, READONLY
  6 .comment      00000059  00000000  00000000  0002046a  2**0
                  CONTENTS, READONLY
  7 .debug_info   0000b8ab  00000000  00000000  000204c3  2**0
                  CONTENTS, READONLY, DEBUGGING
  8 .debug_abbrev 000018e0  00000000  00000000  0002bd6e  2**0
                  CONTENTS, READONLY, DEBUGGING
  9 .debug_loc    0000258f  00000000  00000000  0002d64e  2**0
                  CONTENTS, READONLY, DEBUGGING
 10 .debug_aranges 00000580  00000000  00000000  0002fbdd  2**0
                  CONTENTS, READONLY, DEBUGGING
 11 .debug_ranges 00000640  00000000  00000000  0003015d  2**0
                  CONTENTS, READONLY, DEBUGGING
 12 .debug_macro  0001bfc8  00000000  00000000  0003079d  2**0
                  CONTENTS, READONLY, DEBUGGING
 13 .debug_line   000068de  00000000  00000000  0004c765  2**0
                  CONTENTS, READONLY, DEBUGGING
 14 .debug_str    0008901a  00000000  00000000  00053043  2**0
                  CONTENTS, READONLY, DEBUGGING
 15 .debug_frame  00000cec  00000000  00000000  000dc060  2**2
                  CONTENTS, READONLY, DEBUGGING

Disassembly of section .text:

00400000 <exception_table>:
  400000:	f8 24 40 20 9d 06 40 00 99 06 40 00 99 06 40 00     .$@ ..@...@...@.
  400010:	99 06 40 00 99 06 40 00 99 06 40 00 00 00 00 00     ..@...@...@.....
	...
  40002c:	99 06 40 00 99 06 40 00 00 00 00 00 99 06 40 00     ..@...@.......@.
  40003c:	99 06 40 00 99 06 40 00 99 06 40 00 99 06 40 00     ..@...@...@...@.
  40004c:	99 06 40 00 99 06 40 00 99 06 40 00 99 06 40 00     ..@...@...@...@.
  40005c:	99 06 40 00 99 06 40 00 00 00 00 00 c1 04 40 00     ..@...@.......@.
  40006c:	d5 04 40 00 e9 04 40 00 99 06 40 00 99 06 40 00     ..@...@...@...@.
  40007c:	99 06 40 00 fd 04 40 00 11 05 40 00 99 06 40 00     ..@...@...@...@.
  40008c:	99 06 40 00 99 06 40 00 99 06 40 00 99 06 40 00     ..@...@...@...@.
  40009c:	99 06 40 00 99 06 40 00 99 06 40 00 99 06 40 00     ..@...@...@...@.
  4000ac:	99 06 40 00 99 06 40 00 99 06 40 00 99 06 40 00     ..@...@...@...@.
  4000bc:	99 06 40 00 99 06 40 00 99 06 40 00 99 06 40 00     ..@...@...@...@.
  4000cc:	99 06 40 00 00 00 00 00 99 06 40 00 00 00 00 00     ..@.......@.....
  4000dc:	99 06 40 00 99 06 40 00 99 06 40 00 99 06 40 00     ..@...@...@...@.
  4000ec:	99 06 40 00 99 06 40 00 99 06 40 00 99 06 40 00     ..@...@...@...@.
  4000fc:	99 06 40 00 99 06 40 00 99 06 40 00 99 06 40 00     ..@...@...@...@.
  40010c:	99 06 40 00 99 06 40 00 00 00 00 00 00 00 00 00     ..@...@.........
  40011c:	00 00 00 00 99 06 40 00 99 06 40 00 99 06 40 00     ......@...@...@.
  40012c:	99 06 40 00 99 06 40 00 00 00 00 00 99 06 40 00     ..@...@.......@.
  40013c:	99 06 40 00                                         ..@.

00400140 <__do_global_dtors_aux>:
  400140:	b510      	push	{r4, lr}
  400142:	4c05      	ldr	r4, [pc, #20]	; (400158 <__do_global_dtors_aux+0x18>)
  400144:	7823      	ldrb	r3, [r4, #0]
  400146:	b933      	cbnz	r3, 400156 <__do_global_dtors_aux+0x16>
  400148:	4b04      	ldr	r3, [pc, #16]	; (40015c <__do_global_dtors_aux+0x1c>)
  40014a:	b113      	cbz	r3, 400152 <__do_global_dtors_aux+0x12>
  40014c:	4804      	ldr	r0, [pc, #16]	; (400160 <__do_global_dtors_aux+0x20>)
  40014e:	f3af 8000 	nop.w
  400152:	2301      	movs	r3, #1
  400154:	7023      	strb	r3, [r4, #0]
  400156:	bd10      	pop	{r4, pc}
  400158:	2040043c 	.word	0x2040043c
  40015c:	00000000 	.word	0x00000000
  400160:	00400c18 	.word	0x00400c18

00400164 <frame_dummy>:
  400164:	4b0c      	ldr	r3, [pc, #48]	; (400198 <frame_dummy+0x34>)
  400166:	b143      	cbz	r3, 40017a <frame_dummy+0x16>
  400168:	480c      	ldr	r0, [pc, #48]	; (40019c <frame_dummy+0x38>)
  40016a:	490d      	ldr	r1, [pc, #52]	; (4001a0 <frame_dummy+0x3c>)
  40016c:	b510      	push	{r4, lr}
  40016e:	f3af 8000 	nop.w
  400172:	480c      	ldr	r0, [pc, #48]	; (4001a4 <frame_dummy+0x40>)
  400174:	6803      	ldr	r3, [r0, #0]
  400176:	b923      	cbnz	r3, 400182 <frame_dummy+0x1e>
  400178:	bd10      	pop	{r4, pc}
  40017a:	480a      	ldr	r0, [pc, #40]	; (4001a4 <frame_dummy+0x40>)
  40017c:	6803      	ldr	r3, [r0, #0]
  40017e:	b933      	cbnz	r3, 40018e <frame_dummy+0x2a>
  400180:	4770      	bx	lr
  400182:	4b09      	ldr	r3, [pc, #36]	; (4001a8 <frame_dummy+0x44>)
  400184:	2b00      	cmp	r3, #0
  400186:	d0f7      	beq.n	400178 <frame_dummy+0x14>
  400188:	e8bd 4010 	ldmia.w	sp!, {r4, lr}
  40018c:	4718      	bx	r3
  40018e:	4b06      	ldr	r3, [pc, #24]	; (4001a8 <frame_dummy+0x44>)
  400190:	2b00      	cmp	r3, #0
  400192:	d0f5      	beq.n	400180 <frame_dummy+0x1c>
  400194:	4718      	bx	r3
  400196:	bf00      	nop
  400198:	00000000 	.word	0x00000000
  40019c:	00400c18 	.word	0x00400c18
  4001a0:	20400440 	.word	0x20400440
  4001a4:	00400c18 	.word	0x00400c18
  4001a8:	00000000 	.word	0x00000000

004001ac <sysclk_init>:
	pmc_disable_udpck();
}
#endif // CONFIG_USBCLK_SOURCE

void sysclk_init(void)
{
  4001ac:	b510      	push	{r4, lr}
	struct pll_config pllcfg;

	/* Set flash wait state to max in case the below clock switching. */
	system_init_flash(CHIP_FREQ_CPU_MAX);
  4001ae:	4810      	ldr	r0, [pc, #64]	; (4001f0 <sysclk_init+0x44>)
  4001b0:	4b10      	ldr	r3, [pc, #64]	; (4001f4 <sysclk_init+0x48>)
  4001b2:	4798      	blx	r3
		pmc_switch_mainck_to_fastrc(CKGR_MOR_MOSCRCF_12_MHz);
		break;


	case OSC_MAINCK_XTAL:
		pmc_switch_mainck_to_xtal(PMC_OSC_XTAL,
  4001b4:	213e      	movs	r1, #62	; 0x3e
  4001b6:	2000      	movs	r0, #0
  4001b8:	4b0f      	ldr	r3, [pc, #60]	; (4001f8 <sysclk_init+0x4c>)
  4001ba:	4798      	blx	r3
	case OSC_MAINCK_4M_RC:
	case OSC_MAINCK_8M_RC:
	case OSC_MAINCK_12M_RC:
	case OSC_MAINCK_XTAL:
	case OSC_MAINCK_BYPASS:
		return pmc_osc_is_ready_mainck();
  4001bc:	4c0f      	ldr	r4, [pc, #60]	; (4001fc <sysclk_init+0x50>)
  4001be:	47a0      	blx	r4
 *
 * \param id A number identifying the oscillator to wait for.
 */
static inline void osc_wait_ready(uint8_t id)
{
	while (!osc_is_ready(id)) {
  4001c0:	2800      	cmp	r0, #0
  4001c2:	d0fc      	beq.n	4001be <sysclk_init+0x12>
static inline void pll_enable(const struct pll_config *p_cfg, uint32_t ul_pll_id)
{
	Assert(ul_pll_id < NR_PLLS);

	if (ul_pll_id == PLLA_ID) {
		pmc_disable_pllack(); // Always stop PLL first!
  4001c4:	4b0e      	ldr	r3, [pc, #56]	; (400200 <sysclk_init+0x54>)
  4001c6:	4798      	blx	r3
		PMC->CKGR_PLLAR = CKGR_PLLAR_ONE | p_cfg->ctrl;
  4001c8:	4a0e      	ldr	r2, [pc, #56]	; (400204 <sysclk_init+0x58>)
  4001ca:	4b0f      	ldr	r3, [pc, #60]	; (400208 <sysclk_init+0x5c>)
  4001cc:	629a      	str	r2, [r3, #40]	; 0x28
static inline uint32_t pll_is_locked(uint32_t ul_pll_id)
{
	Assert(ul_pll_id < NR_PLLS);

	if (ul_pll_id == PLLA_ID) {
	return pmc_is_locked_pllack();
  4001ce:	4c0f      	ldr	r4, [pc, #60]	; (40020c <sysclk_init+0x60>)
  4001d0:	47a0      	blx	r4
 */
static inline int pll_wait_for_lock(unsigned int pll_id)
{
	Assert(pll_id < NR_PLLS);

	while (!pll_is_locked(pll_id)) {
  4001d2:	2800      	cmp	r0, #0
  4001d4:	d0fc      	beq.n	4001d0 <sysclk_init+0x24>
	else if (CONFIG_SYSCLK_SOURCE == SYSCLK_SRC_PLLACK) {
		pll_enable_source(CONFIG_PLL0_SOURCE);
		pll_config_defaults(&pllcfg, 0);
		pll_enable(&pllcfg, 0);
		pll_wait_for_lock(0);
		pmc_mck_set_division(CONFIG_SYSCLK_DIV);
  4001d6:	2002      	movs	r0, #2
  4001d8:	4b0d      	ldr	r3, [pc, #52]	; (400210 <sysclk_init+0x64>)
  4001da:	4798      	blx	r3
		pmc_switch_mck_to_pllack(CONFIG_SYSCLK_PRES);
  4001dc:	2000      	movs	r0, #0
  4001de:	4b0d      	ldr	r3, [pc, #52]	; (400214 <sysclk_init+0x68>)
  4001e0:	4798      	blx	r3
		pll_wait_for_lock(1);
		pmc_mck_set_division(CONFIG_SYSCLK_DIV);
		pmc_switch_mck_to_upllck(CONFIG_SYSCLK_PRES);
	}
	/* Update the SystemFrequency variable */
	SystemCoreClockUpdate();
  4001e2:	4b0d      	ldr	r3, [pc, #52]	; (400218 <sysclk_init+0x6c>)
  4001e4:	4798      	blx	r3

	/* Set a flash wait state depending on the new cpu frequency */
	system_init_flash(sysclk_get_cpu_hz());
  4001e6:	4802      	ldr	r0, [pc, #8]	; (4001f0 <sysclk_init+0x44>)
  4001e8:	4b02      	ldr	r3, [pc, #8]	; (4001f4 <sysclk_init+0x48>)
  4001ea:	4798      	blx	r3
  4001ec:	bd10      	pop	{r4, pc}
  4001ee:	bf00      	nop
  4001f0:	11e1a300 	.word	0x11e1a300
  4001f4:	00400871 	.word	0x00400871
  4001f8:	004005c1 	.word	0x004005c1
  4001fc:	00400615 	.word	0x00400615
  400200:	00400625 	.word	0x00400625
  400204:	20183f01 	.word	0x20183f01
  400208:	400e0600 	.word	0x400e0600
  40020c:	00400635 	.word	0x00400635
  400210:	00400525 	.word	0x00400525
  400214:	0040055d 	.word	0x0040055d
  400218:	00400765 	.word	0x00400765

0040021c <pio_set>:
 * \param p_pio Pointer to a PIO instance.
 * \param ul_mask Bitmask of one or more pin(s) to configure.
 */
void pio_set(Pio *p_pio, const uint32_t ul_mask)
{
	p_pio->PIO_SODR = ul_mask;
  40021c:	6301      	str	r1, [r0, #48]	; 0x30
  40021e:	4770      	bx	lr

00400220 <pio_clear>:
 * \param p_pio Pointer to a PIO instance.
 * \param ul_mask Bitmask of one or more pin(s) to configure.
 */
void pio_clear(Pio *p_pio, const uint32_t ul_mask)
{
	p_pio->PIO_CODR = ul_mask;
  400220:	6341      	str	r1, [r0, #52]	; 0x34
  400222:	4770      	bx	lr

00400224 <pio_get>:
uint32_t pio_get(Pio *p_pio, const pio_type_t ul_type,
		const uint32_t ul_mask)
{
	uint32_t ul_reg;

	if ((ul_type == PIO_OUTPUT_0) || (ul_type == PIO_OUTPUT_1)) {
  400224:	f021 6100 	bic.w	r1, r1, #134217728	; 0x8000000
  400228:	f1b1 5f40 	cmp.w	r1, #805306368	; 0x30000000
  40022c:	d105      	bne.n	40023a <pio_get+0x16>
		ul_reg = p_pio->PIO_ODSR;
  40022e:	6b83      	ldr	r3, [r0, #56]	; 0x38
	} else {
		ul_reg = p_pio->PIO_PDSR;
	}

	if ((ul_reg & ul_mask) == 0) {
  400230:	4213      	tst	r3, r2
		return 0;
	} else {
		return 1;
	}
}
  400232:	bf14      	ite	ne
  400234:	2001      	movne	r0, #1
  400236:	2000      	moveq	r0, #0
  400238:	4770      	bx	lr
		ul_reg = p_pio->PIO_PDSR;
  40023a:	6bc3      	ldr	r3, [r0, #60]	; 0x3c
  40023c:	e7f8      	b.n	400230 <pio_get+0xc>

0040023e <pio_set_peripheral>:
		const uint32_t ul_mask)
{
	uint32_t ul_sr;

	/* Disable interrupts on the pin(s) */
	p_pio->PIO_IDR = ul_mask;
  40023e:	6442      	str	r2, [r0, #68]	; 0x44

#if (SAM3S || SAM3N || SAM4S || SAM4E || SAM4N || SAM4C || SAMG || SAM4CP || SAM4CM || SAMV71 || SAMV70 || SAME70 || SAMS70)
	switch (ul_type) {
  400240:	f1b1 5fc0 	cmp.w	r1, #402653184	; 0x18000000
  400244:	d03a      	beq.n	4002bc <pio_set_peripheral+0x7e>
  400246:	d813      	bhi.n	400270 <pio_set_peripheral+0x32>
  400248:	f1b1 6f00 	cmp.w	r1, #134217728	; 0x8000000
  40024c:	d025      	beq.n	40029a <pio_set_peripheral+0x5c>
  40024e:	f1b1 5f80 	cmp.w	r1, #268435456	; 0x10000000
  400252:	d10a      	bne.n	40026a <pio_set_peripheral+0x2c>

		ul_sr = p_pio->PIO_ABCDSR[1];
		p_pio->PIO_ABCDSR[1] &= (~ul_mask & ul_sr);
		break;
	case PIO_PERIPH_B:
		ul_sr = p_pio->PIO_ABCDSR[0];
  400254:	6f03      	ldr	r3, [r0, #112]	; 0x70
		p_pio->PIO_ABCDSR[0] = (ul_mask | ul_sr);
  400256:	4313      	orrs	r3, r2
  400258:	6703      	str	r3, [r0, #112]	; 0x70

		ul_sr = p_pio->PIO_ABCDSR[1];
  40025a:	6f43      	ldr	r3, [r0, #116]	; 0x74
		p_pio->PIO_ABCDSR[1] &= (~ul_mask & ul_sr);
  40025c:	6f41      	ldr	r1, [r0, #116]	; 0x74
  40025e:	400b      	ands	r3, r1
  400260:	ea23 0302 	bic.w	r3, r3, r2
  400264:	6743      	str	r3, [r0, #116]	; 0x74
#else
#error "Unsupported device"
#endif

	/* Remove the pins from under the control of PIO */
	p_pio->PIO_PDR = ul_mask;
  400266:	6042      	str	r2, [r0, #4]
  400268:	4770      	bx	lr
	switch (ul_type) {
  40026a:	2900      	cmp	r1, #0
  40026c:	d1fb      	bne.n	400266 <pio_set_peripheral+0x28>
  40026e:	4770      	bx	lr
  400270:	f1b1 5f20 	cmp.w	r1, #671088640	; 0x28000000
  400274:	d021      	beq.n	4002ba <pio_set_peripheral+0x7c>
  400276:	d809      	bhi.n	40028c <pio_set_peripheral+0x4e>
  400278:	f1b1 5f00 	cmp.w	r1, #536870912	; 0x20000000
  40027c:	d1f3      	bne.n	400266 <pio_set_peripheral+0x28>
		ul_sr = p_pio->PIO_ABCDSR[0];
  40027e:	6f03      	ldr	r3, [r0, #112]	; 0x70
		p_pio->PIO_ABCDSR[0] = (ul_mask | ul_sr);
  400280:	4313      	orrs	r3, r2
  400282:	6703      	str	r3, [r0, #112]	; 0x70
		ul_sr = p_pio->PIO_ABCDSR[1];
  400284:	6f43      	ldr	r3, [r0, #116]	; 0x74
		p_pio->PIO_ABCDSR[1] = (ul_mask | ul_sr);
  400286:	4313      	orrs	r3, r2
  400288:	6743      	str	r3, [r0, #116]	; 0x74
		break;
  40028a:	e7ec      	b.n	400266 <pio_set_peripheral+0x28>
	switch (ul_type) {
  40028c:	f1b1 5f40 	cmp.w	r1, #805306368	; 0x30000000
  400290:	d013      	beq.n	4002ba <pio_set_peripheral+0x7c>
  400292:	f1b1 5f60 	cmp.w	r1, #939524096	; 0x38000000
  400296:	d010      	beq.n	4002ba <pio_set_peripheral+0x7c>
  400298:	e7e5      	b.n	400266 <pio_set_peripheral+0x28>
{
  40029a:	b410      	push	{r4}
		ul_sr = p_pio->PIO_ABCDSR[0];
  40029c:	6f01      	ldr	r1, [r0, #112]	; 0x70
		p_pio->PIO_ABCDSR[0] &= (~ul_mask & ul_sr);
  40029e:	6f04      	ldr	r4, [r0, #112]	; 0x70
  4002a0:	43d3      	mvns	r3, r2
  4002a2:	4021      	ands	r1, r4
  4002a4:	461c      	mov	r4, r3
  4002a6:	4019      	ands	r1, r3
  4002a8:	6701      	str	r1, [r0, #112]	; 0x70
		ul_sr = p_pio->PIO_ABCDSR[1];
  4002aa:	6f43      	ldr	r3, [r0, #116]	; 0x74
		p_pio->PIO_ABCDSR[1] &= (~ul_mask & ul_sr);
  4002ac:	6f41      	ldr	r1, [r0, #116]	; 0x74
  4002ae:	400b      	ands	r3, r1
  4002b0:	4023      	ands	r3, r4
  4002b2:	6743      	str	r3, [r0, #116]	; 0x74
	p_pio->PIO_PDR = ul_mask;
  4002b4:	6042      	str	r2, [r0, #4]
}
  4002b6:	f85d 4b04 	ldr.w	r4, [sp], #4
  4002ba:	4770      	bx	lr
		ul_sr = p_pio->PIO_ABCDSR[0];
  4002bc:	6f03      	ldr	r3, [r0, #112]	; 0x70
		p_pio->PIO_ABCDSR[0] &= (~ul_mask & ul_sr);
  4002be:	6f01      	ldr	r1, [r0, #112]	; 0x70
  4002c0:	400b      	ands	r3, r1
  4002c2:	ea23 0302 	bic.w	r3, r3, r2
  4002c6:	6703      	str	r3, [r0, #112]	; 0x70
		ul_sr = p_pio->PIO_ABCDSR[1];
  4002c8:	6f43      	ldr	r3, [r0, #116]	; 0x74
		p_pio->PIO_ABCDSR[1] = (ul_mask | ul_sr);
  4002ca:	4313      	orrs	r3, r2
  4002cc:	6743      	str	r3, [r0, #116]	; 0x74
		break;
  4002ce:	e7ca      	b.n	400266 <pio_set_peripheral+0x28>

004002d0 <pio_set_input>:
 * \param p_pio Pointer to a PIO instance.
 * \param ul_mask Interrupt sources bit map.
 */
void pio_disable_interrupt(Pio *p_pio, const uint32_t ul_mask)
{
	p_pio->PIO_IDR = ul_mask;
  4002d0:	6441      	str	r1, [r0, #68]	; 0x44
	if (ul_pull_up_enable) {
  4002d2:	f012 0f01 	tst.w	r2, #1
  4002d6:	d10d      	bne.n	4002f4 <pio_set_input+0x24>
		p_pio->PIO_PUDR = ul_mask;
  4002d8:	6601      	str	r1, [r0, #96]	; 0x60
	if (ul_attribute & (PIO_DEGLITCH | PIO_DEBOUNCE)) {
  4002da:	f012 0f0a 	tst.w	r2, #10
  4002de:	d00b      	beq.n	4002f8 <pio_set_input+0x28>
		p_pio->PIO_IFER = ul_mask;
  4002e0:	6201      	str	r1, [r0, #32]
	if (ul_attribute & PIO_DEGLITCH) {
  4002e2:	f012 0f02 	tst.w	r2, #2
  4002e6:	d109      	bne.n	4002fc <pio_set_input+0x2c>
		if (ul_attribute & PIO_DEBOUNCE) {
  4002e8:	f012 0f08 	tst.w	r2, #8
  4002ec:	d008      	beq.n	400300 <pio_set_input+0x30>
			p_pio->PIO_IFSCER = ul_mask;
  4002ee:	f8c0 1084 	str.w	r1, [r0, #132]	; 0x84
  4002f2:	e005      	b.n	400300 <pio_set_input+0x30>
		p_pio->PIO_PUER = ul_mask;
  4002f4:	6641      	str	r1, [r0, #100]	; 0x64
  4002f6:	e7f0      	b.n	4002da <pio_set_input+0xa>
		p_pio->PIO_IFDR = ul_mask;
  4002f8:	6241      	str	r1, [r0, #36]	; 0x24
  4002fa:	e7f2      	b.n	4002e2 <pio_set_input+0x12>
		p_pio->PIO_IFSCDR = ul_mask;
  4002fc:	f8c0 1080 	str.w	r1, [r0, #128]	; 0x80
	p_pio->PIO_ODR = ul_mask;
  400300:	6141      	str	r1, [r0, #20]
	p_pio->PIO_PER = ul_mask;
  400302:	6001      	str	r1, [r0, #0]
  400304:	4770      	bx	lr

00400306 <pio_set_output>:
{
  400306:	b410      	push	{r4}
  400308:	9c01      	ldr	r4, [sp, #4]
	p_pio->PIO_IDR = ul_mask;
  40030a:	6441      	str	r1, [r0, #68]	; 0x44
	if (ul_pull_up_enable) {
  40030c:	b94c      	cbnz	r4, 400322 <pio_set_output+0x1c>
		p_pio->PIO_PUDR = ul_mask;
  40030e:	6601      	str	r1, [r0, #96]	; 0x60
	if (ul_multidrive_enable) {
  400310:	b14b      	cbz	r3, 400326 <pio_set_output+0x20>
		p_pio->PIO_MDER = ul_mask;
  400312:	6501      	str	r1, [r0, #80]	; 0x50
	if (ul_default_level) {
  400314:	b94a      	cbnz	r2, 40032a <pio_set_output+0x24>
		p_pio->PIO_CODR = ul_mask;
  400316:	6341      	str	r1, [r0, #52]	; 0x34
	p_pio->PIO_OER = ul_mask;
  400318:	6101      	str	r1, [r0, #16]
	p_pio->PIO_PER = ul_mask;
  40031a:	6001      	str	r1, [r0, #0]
}
  40031c:	f85d 4b04 	ldr.w	r4, [sp], #4
  400320:	4770      	bx	lr
		p_pio->PIO_PUER = ul_mask;
  400322:	6641      	str	r1, [r0, #100]	; 0x64
  400324:	e7f4      	b.n	400310 <pio_set_output+0xa>
		p_pio->PIO_MDDR = ul_mask;
  400326:	6541      	str	r1, [r0, #84]	; 0x54
  400328:	e7f4      	b.n	400314 <pio_set_output+0xe>
		p_pio->PIO_SODR = ul_mask;
  40032a:	6301      	str	r1, [r0, #48]	; 0x30
  40032c:	e7f4      	b.n	400318 <pio_set_output+0x12>
	...

00400330 <pio_configure>:
{
  400330:	b570      	push	{r4, r5, r6, lr}
  400332:	b082      	sub	sp, #8
  400334:	4605      	mov	r5, r0
  400336:	4616      	mov	r6, r2
  400338:	461c      	mov	r4, r3
	switch (ul_type) {
  40033a:	f1b1 5f00 	cmp.w	r1, #536870912	; 0x20000000
  40033e:	d014      	beq.n	40036a <pio_configure+0x3a>
  400340:	d90a      	bls.n	400358 <pio_configure+0x28>
  400342:	f1b1 5f40 	cmp.w	r1, #805306368	; 0x30000000
  400346:	d024      	beq.n	400392 <pio_configure+0x62>
  400348:	f1b1 5f60 	cmp.w	r1, #939524096	; 0x38000000
  40034c:	d021      	beq.n	400392 <pio_configure+0x62>
  40034e:	f1b1 5f20 	cmp.w	r1, #671088640	; 0x28000000
  400352:	d017      	beq.n	400384 <pio_configure+0x54>
		return 0;
  400354:	2000      	movs	r0, #0
  400356:	e01a      	b.n	40038e <pio_configure+0x5e>
	switch (ul_type) {
  400358:	f1b1 5f80 	cmp.w	r1, #268435456	; 0x10000000
  40035c:	d005      	beq.n	40036a <pio_configure+0x3a>
  40035e:	f1b1 5fc0 	cmp.w	r1, #402653184	; 0x18000000
  400362:	d002      	beq.n	40036a <pio_configure+0x3a>
  400364:	f1b1 6f00 	cmp.w	r1, #134217728	; 0x8000000
  400368:	d1f4      	bne.n	400354 <pio_configure+0x24>
		pio_set_peripheral(p_pio, ul_type, ul_mask);
  40036a:	4632      	mov	r2, r6
  40036c:	4628      	mov	r0, r5
  40036e:	4b11      	ldr	r3, [pc, #68]	; (4003b4 <pio_configure+0x84>)
  400370:	4798      	blx	r3
	if (ul_pull_up_enable) {
  400372:	f014 0f01 	tst.w	r4, #1
  400376:	d102      	bne.n	40037e <pio_configure+0x4e>
		p_pio->PIO_PUDR = ul_mask;
  400378:	662e      	str	r6, [r5, #96]	; 0x60
	return 1;
  40037a:	2001      	movs	r0, #1
  40037c:	e007      	b.n	40038e <pio_configure+0x5e>
		p_pio->PIO_PUER = ul_mask;
  40037e:	666e      	str	r6, [r5, #100]	; 0x64
	return 1;
  400380:	2001      	movs	r0, #1
  400382:	e004      	b.n	40038e <pio_configure+0x5e>
		pio_set_input(p_pio, ul_mask, ul_attribute);
  400384:	461a      	mov	r2, r3
  400386:	4631      	mov	r1, r6
  400388:	4b0b      	ldr	r3, [pc, #44]	; (4003b8 <pio_configure+0x88>)
  40038a:	4798      	blx	r3
	return 1;
  40038c:	2001      	movs	r0, #1
}
  40038e:	b002      	add	sp, #8
  400390:	bd70      	pop	{r4, r5, r6, pc}
		pio_set_output(p_pio, ul_mask, (ul_type == PIO_OUTPUT_1),
  400392:	f004 0301 	and.w	r3, r4, #1
  400396:	9300      	str	r3, [sp, #0]
  400398:	f3c4 0380 	ubfx	r3, r4, #2, #1
  40039c:	f1b1 5f60 	cmp.w	r1, #939524096	; 0x38000000
  4003a0:	bf14      	ite	ne
  4003a2:	2200      	movne	r2, #0
  4003a4:	2201      	moveq	r2, #1
  4003a6:	4631      	mov	r1, r6
  4003a8:	4628      	mov	r0, r5
  4003aa:	4c04      	ldr	r4, [pc, #16]	; (4003bc <pio_configure+0x8c>)
  4003ac:	47a0      	blx	r4
	return 1;
  4003ae:	2001      	movs	r0, #1
		break;
  4003b0:	e7ed      	b.n	40038e <pio_configure+0x5e>
  4003b2:	bf00      	nop
  4003b4:	0040023f 	.word	0x0040023f
  4003b8:	004002d1 	.word	0x004002d1
  4003bc:	00400307 	.word	0x00400307

004003c0 <pio_configure_interrupt>:
	if (ul_attr & PIO_IT_AIME) {
  4003c0:	f012 0f10 	tst.w	r2, #16
  4003c4:	d012      	beq.n	4003ec <pio_configure_interrupt+0x2c>
		p_pio->PIO_AIMER = ul_mask;
  4003c6:	f8c0 10b0 	str.w	r1, [r0, #176]	; 0xb0
		if (ul_attr & PIO_IT_RE_OR_HL) {
  4003ca:	f012 0f20 	tst.w	r2, #32
  4003ce:	d007      	beq.n	4003e0 <pio_configure_interrupt+0x20>
			p_pio->PIO_REHLSR = ul_mask;
  4003d0:	f8c0 10d4 	str.w	r1, [r0, #212]	; 0xd4
		if (ul_attr & PIO_IT_EDGE) {
  4003d4:	f012 0f40 	tst.w	r2, #64	; 0x40
  4003d8:	d005      	beq.n	4003e6 <pio_configure_interrupt+0x26>
			p_pio->PIO_ESR = ul_mask;
  4003da:	f8c0 10c0 	str.w	r1, [r0, #192]	; 0xc0
  4003de:	4770      	bx	lr
			p_pio->PIO_FELLSR = ul_mask;
  4003e0:	f8c0 10d0 	str.w	r1, [r0, #208]	; 0xd0
  4003e4:	e7f6      	b.n	4003d4 <pio_configure_interrupt+0x14>
			p_pio->PIO_LSR = ul_mask;
  4003e6:	f8c0 10c4 	str.w	r1, [r0, #196]	; 0xc4
  4003ea:	4770      	bx	lr
		p_pio->PIO_AIMDR = ul_mask;
  4003ec:	f8c0 10b4 	str.w	r1, [r0, #180]	; 0xb4
  4003f0:	4770      	bx	lr

004003f2 <pio_enable_interrupt>:
	p_pio->PIO_IER = ul_mask;
  4003f2:	6401      	str	r1, [r0, #64]	; 0x40
  4003f4:	4770      	bx	lr

004003f6 <pio_get_interrupt_status>:
 *
 * \return The interrupt status value.
 */
uint32_t pio_get_interrupt_status(const Pio *p_pio)
{
	return p_pio->PIO_ISR;
  4003f6:	6cc0      	ldr	r0, [r0, #76]	; 0x4c
}
  4003f8:	4770      	bx	lr

004003fa <pio_get_interrupt_mask>:
 *
 * \return The interrupt mask value.
 */
uint32_t pio_get_interrupt_mask(const Pio *p_pio)
{
	return p_pio->PIO_IMR;
  4003fa:	6c80      	ldr	r0, [r0, #72]	; 0x48
}
  4003fc:	4770      	bx	lr
	...

00400400 <pio_handler_process>:
 *
 * \param p_pio PIO controller base address.
 * \param ul_id PIO controller ID.
 */
void pio_handler_process(Pio *p_pio, uint32_t ul_id)
{
  400400:	e92d 41f0 	stmdb	sp!, {r4, r5, r6, r7, r8, lr}
  400404:	4604      	mov	r4, r0
  400406:	4688      	mov	r8, r1
	uint32_t status;
	uint32_t i;

	/* Read PIO controller status */
	status = pio_get_interrupt_status(p_pio);
  400408:	4b0e      	ldr	r3, [pc, #56]	; (400444 <pio_handler_process+0x44>)
  40040a:	4798      	blx	r3
  40040c:	4605      	mov	r5, r0
	status &= pio_get_interrupt_mask(p_pio);
  40040e:	4620      	mov	r0, r4
  400410:	4b0d      	ldr	r3, [pc, #52]	; (400448 <pio_handler_process+0x48>)
  400412:	4798      	blx	r3

	/* Check pending events */
	if (status != 0) {
  400414:	4005      	ands	r5, r0
  400416:	d013      	beq.n	400440 <pio_handler_process+0x40>
  400418:	4c0c      	ldr	r4, [pc, #48]	; (40044c <pio_handler_process+0x4c>)
  40041a:	f104 0660 	add.w	r6, r4, #96	; 0x60
  40041e:	e003      	b.n	400428 <pio_handler_process+0x28>
							gs_interrupt_sources[i].mask);
					status &= ~(gs_interrupt_sources[i].mask);
				}
			}
			i++;
			if (i >= MAX_INTERRUPT_SOURCES) {
  400420:	42b4      	cmp	r4, r6
  400422:	d00d      	beq.n	400440 <pio_handler_process+0x40>
  400424:	3410      	adds	r4, #16
		while (status != 0) {
  400426:	b15d      	cbz	r5, 400440 <pio_handler_process+0x40>
			if (gs_interrupt_sources[i].id == ul_id) {
  400428:	6820      	ldr	r0, [r4, #0]
  40042a:	4540      	cmp	r0, r8
  40042c:	d1f8      	bne.n	400420 <pio_handler_process+0x20>
				if ((status & gs_interrupt_sources[i].mask) != 0) {
  40042e:	6861      	ldr	r1, [r4, #4]
  400430:	4229      	tst	r1, r5
  400432:	d0f5      	beq.n	400420 <pio_handler_process+0x20>
					gs_interrupt_sources[i].handler(gs_interrupt_sources[i].id,
  400434:	68e3      	ldr	r3, [r4, #12]
  400436:	4798      	blx	r3
					status &= ~(gs_interrupt_sources[i].mask);
  400438:	6863      	ldr	r3, [r4, #4]
  40043a:	ea25 0503 	bic.w	r5, r5, r3
  40043e:	e7ef      	b.n	400420 <pio_handler_process+0x20>
  400440:	e8bd 81f0 	ldmia.w	sp!, {r4, r5, r6, r7, r8, pc}
  400444:	004003f7 	.word	0x004003f7
  400448:	004003fb 	.word	0x004003fb
  40044c:	20400458 	.word	0x20400458

00400450 <pio_handler_set>:
 *
 * \return 0 if successful, 1 if the maximum number of sources has been defined.
 */
uint32_t pio_handler_set(Pio *p_pio, uint32_t ul_id, uint32_t ul_mask,
		uint32_t ul_attr, void (*p_handler) (uint32_t, uint32_t))
{
  400450:	b5f8      	push	{r3, r4, r5, r6, r7, lr}
    uint8_t i;
	struct s_interrupt_source *pSource;

	if (gs_ul_nb_sources >= MAX_INTERRUPT_SOURCES)
  400452:	4c18      	ldr	r4, [pc, #96]	; (4004b4 <pio_handler_set+0x64>)
  400454:	6826      	ldr	r6, [r4, #0]
  400456:	2e06      	cmp	r6, #6
  400458:	d82a      	bhi.n	4004b0 <pio_handler_set+0x60>
  40045a:	f04f 0c00 	mov.w	ip, #0
  40045e:	4664      	mov	r4, ip
		return 1;

    /* Check interrupt for this pin, if already defined, redefine it. */
	for (i = 0; i <= gs_ul_nb_sources; i++) {
		pSource = &(gs_interrupt_sources[i]);
		if (pSource->id == ul_id && pSource->mask == ul_mask) {
  400460:	4f15      	ldr	r7, [pc, #84]	; (4004b8 <pio_handler_set+0x68>)
  400462:	e004      	b.n	40046e <pio_handler_set+0x1e>
	for (i = 0; i <= gs_ul_nb_sources; i++) {
  400464:	3401      	adds	r4, #1
  400466:	b2e4      	uxtb	r4, r4
  400468:	46a4      	mov	ip, r4
  40046a:	42a6      	cmp	r6, r4
  40046c:	d309      	bcc.n	400482 <pio_handler_set+0x32>
		pSource = &(gs_interrupt_sources[i]);
  40046e:	46a6      	mov	lr, r4
		if (pSource->id == ul_id && pSource->mask == ul_mask) {
  400470:	0125      	lsls	r5, r4, #4
  400472:	597d      	ldr	r5, [r7, r5]
  400474:	428d      	cmp	r5, r1
  400476:	d1f5      	bne.n	400464 <pio_handler_set+0x14>
  400478:	eb07 1504 	add.w	r5, r7, r4, lsl #4
  40047c:	686d      	ldr	r5, [r5, #4]
  40047e:	4295      	cmp	r5, r2
  400480:	d1f0      	bne.n	400464 <pio_handler_set+0x14>
			break;
		}
	}

	/* Define new source */
	pSource->id = ul_id;
  400482:	4d0d      	ldr	r5, [pc, #52]	; (4004b8 <pio_handler_set+0x68>)
  400484:	ea4f 1e0e 	mov.w	lr, lr, lsl #4
  400488:	eb05 040e 	add.w	r4, r5, lr
  40048c:	f845 100e 	str.w	r1, [r5, lr]
	pSource->mask = ul_mask;
  400490:	6062      	str	r2, [r4, #4]
	pSource->attr = ul_attr;
  400492:	60a3      	str	r3, [r4, #8]
	pSource->handler = p_handler;
  400494:	9906      	ldr	r1, [sp, #24]
  400496:	60e1      	str	r1, [r4, #12]
	if (i == gs_ul_nb_sources + 1) {
  400498:	3601      	adds	r6, #1
  40049a:	4566      	cmp	r6, ip
  40049c:	d005      	beq.n	4004aa <pio_handler_set+0x5a>
  40049e:	4611      	mov	r1, r2
		gs_ul_nb_sources++;
	}

	/* Configure interrupt mode */
	pio_configure_interrupt(p_pio, ul_mask, ul_attr);
  4004a0:	461a      	mov	r2, r3
  4004a2:	4b06      	ldr	r3, [pc, #24]	; (4004bc <pio_handler_set+0x6c>)
  4004a4:	4798      	blx	r3

	return 0;
  4004a6:	2000      	movs	r0, #0
  4004a8:	bdf8      	pop	{r3, r4, r5, r6, r7, pc}
		gs_ul_nb_sources++;
  4004aa:	4902      	ldr	r1, [pc, #8]	; (4004b4 <pio_handler_set+0x64>)
  4004ac:	600e      	str	r6, [r1, #0]
  4004ae:	e7f6      	b.n	40049e <pio_handler_set+0x4e>
		return 1;
  4004b0:	2001      	movs	r0, #1
}
  4004b2:	bdf8      	pop	{r3, r4, r5, r6, r7, pc}
  4004b4:	204004c8 	.word	0x204004c8
  4004b8:	20400458 	.word	0x20400458
  4004bc:	004003c1 	.word	0x004003c1

004004c0 <PIOA_Handler>:
/**
 * \brief Parallel IO Controller A interrupt handler.
 * Redefined PIOA interrupt handler for NVIC interrupt table.
 */
void PIOA_Handler(void)
{
  4004c0:	b508      	push	{r3, lr}
	pio_handler_process(PIOA, ID_PIOA);
  4004c2:	210a      	movs	r1, #10
  4004c4:	4801      	ldr	r0, [pc, #4]	; (4004cc <PIOA_Handler+0xc>)
  4004c6:	4b02      	ldr	r3, [pc, #8]	; (4004d0 <PIOA_Handler+0x10>)
  4004c8:	4798      	blx	r3
  4004ca:	bd08      	pop	{r3, pc}
  4004cc:	400e0e00 	.word	0x400e0e00
  4004d0:	00400401 	.word	0x00400401

004004d4 <PIOB_Handler>:
/**
 * \brief Parallel IO Controller B interrupt handler
 * Redefined PIOB interrupt handler for NVIC interrupt table.
 */
void PIOB_Handler(void)
{
  4004d4:	b508      	push	{r3, lr}
    pio_handler_process(PIOB, ID_PIOB);
  4004d6:	210b      	movs	r1, #11
  4004d8:	4801      	ldr	r0, [pc, #4]	; (4004e0 <PIOB_Handler+0xc>)
  4004da:	4b02      	ldr	r3, [pc, #8]	; (4004e4 <PIOB_Handler+0x10>)
  4004dc:	4798      	blx	r3
  4004de:	bd08      	pop	{r3, pc}
  4004e0:	400e1000 	.word	0x400e1000
  4004e4:	00400401 	.word	0x00400401

004004e8 <PIOC_Handler>:
/**
 * \brief Parallel IO Controller C interrupt handler.
 * Redefined PIOC interrupt handler for NVIC interrupt table.
 */
void PIOC_Handler(void)
{
  4004e8:	b508      	push	{r3, lr}
	pio_handler_process(PIOC, ID_PIOC);
  4004ea:	210c      	movs	r1, #12
  4004ec:	4801      	ldr	r0, [pc, #4]	; (4004f4 <PIOC_Handler+0xc>)
  4004ee:	4b02      	ldr	r3, [pc, #8]	; (4004f8 <PIOC_Handler+0x10>)
  4004f0:	4798      	blx	r3
  4004f2:	bd08      	pop	{r3, pc}
  4004f4:	400e1200 	.word	0x400e1200
  4004f8:	00400401 	.word	0x00400401

004004fc <PIOD_Handler>:
/**
 * \brief Parallel IO Controller D interrupt handler.
 * Redefined PIOD interrupt handler for NVIC interrupt table.
 */
void PIOD_Handler(void)
{
  4004fc:	b508      	push	{r3, lr}
	pio_handler_process(PIOD, ID_PIOD);
  4004fe:	2110      	movs	r1, #16
  400500:	4801      	ldr	r0, [pc, #4]	; (400508 <PIOD_Handler+0xc>)
  400502:	4b02      	ldr	r3, [pc, #8]	; (40050c <PIOD_Handler+0x10>)
  400504:	4798      	blx	r3
  400506:	bd08      	pop	{r3, pc}
  400508:	400e1400 	.word	0x400e1400
  40050c:	00400401 	.word	0x00400401

00400510 <PIOE_Handler>:
/**
 * \brief Parallel IO Controller E interrupt handler.
 * Redefined PIOE interrupt handler for NVIC interrupt table.
 */
void PIOE_Handler(void)
{
  400510:	b508      	push	{r3, lr}
	pio_handler_process(PIOE, ID_PIOE);
  400512:	2111      	movs	r1, #17
  400514:	4801      	ldr	r0, [pc, #4]	; (40051c <PIOE_Handler+0xc>)
  400516:	4b02      	ldr	r3, [pc, #8]	; (400520 <PIOE_Handler+0x10>)
  400518:	4798      	blx	r3
  40051a:	bd08      	pop	{r3, pc}
  40051c:	400e1600 	.word	0x400e1600
  400520:	00400401 	.word	0x00400401

00400524 <pmc_mck_set_division>:
 *
 * \param ul_div Division value.
 */
void pmc_mck_set_division(uint32_t ul_div)
{
	switch (ul_div) {
  400524:	2803      	cmp	r0, #3
  400526:	d011      	beq.n	40054c <pmc_mck_set_division+0x28>
  400528:	2804      	cmp	r0, #4
  40052a:	d012      	beq.n	400552 <pmc_mck_set_division+0x2e>
		case 1:
			ul_div = PMC_MCKR_MDIV_EQ_PCK;
  40052c:	2802      	cmp	r0, #2
  40052e:	bf0c      	ite	eq
  400530:	f44f 7180 	moveq.w	r1, #256	; 0x100
  400534:	2100      	movne	r1, #0
		default:
			ul_div = PMC_MCKR_MDIV_EQ_PCK;
			break;
	}
	PMC->PMC_MCKR =
			(PMC->PMC_MCKR & (~PMC_MCKR_MDIV_Msk)) | ul_div;
  400536:	4a08      	ldr	r2, [pc, #32]	; (400558 <pmc_mck_set_division+0x34>)
  400538:	6b13      	ldr	r3, [r2, #48]	; 0x30
  40053a:	f423 7340 	bic.w	r3, r3, #768	; 0x300
  40053e:	430b      	orrs	r3, r1
	PMC->PMC_MCKR =
  400540:	6313      	str	r3, [r2, #48]	; 0x30
	while (!(PMC->PMC_SR & PMC_SR_MCKRDY));
  400542:	6e93      	ldr	r3, [r2, #104]	; 0x68
  400544:	f013 0f08 	tst.w	r3, #8
  400548:	d0fb      	beq.n	400542 <pmc_mck_set_division+0x1e>
}
  40054a:	4770      	bx	lr
			ul_div = PMC_MCKR_MDIV_PCK_DIV3;
  40054c:	f44f 7140 	mov.w	r1, #768	; 0x300
			break;
  400550:	e7f1      	b.n	400536 <pmc_mck_set_division+0x12>
			ul_div = PMC_MCKR_MDIV_PCK_DIV4;
  400552:	f44f 7100 	mov.w	r1, #512	; 0x200
			break;
  400556:	e7ee      	b.n	400536 <pmc_mck_set_division+0x12>
  400558:	400e0600 	.word	0x400e0600

0040055c <pmc_switch_mck_to_pllack>:
 */
uint32_t pmc_switch_mck_to_pllack(uint32_t ul_pres)
{
	uint32_t ul_timeout;

	PMC->PMC_MCKR = (PMC->PMC_MCKR & (~PMC_MCKR_PRES_Msk)) | ul_pres;
  40055c:	4a17      	ldr	r2, [pc, #92]	; (4005bc <pmc_switch_mck_to_pllack+0x60>)
  40055e:	6b13      	ldr	r3, [r2, #48]	; 0x30
  400560:	f023 0370 	bic.w	r3, r3, #112	; 0x70
  400564:	4318      	orrs	r0, r3
  400566:	6310      	str	r0, [r2, #48]	; 0x30
	for (ul_timeout = PMC_TIMEOUT; !(PMC->PMC_SR & PMC_SR_MCKRDY);
  400568:	6e93      	ldr	r3, [r2, #104]	; 0x68
  40056a:	f013 0f08 	tst.w	r3, #8
  40056e:	d10a      	bne.n	400586 <pmc_switch_mck_to_pllack+0x2a>
  400570:	f44f 5380 	mov.w	r3, #4096	; 0x1000
  400574:	4911      	ldr	r1, [pc, #68]	; (4005bc <pmc_switch_mck_to_pllack+0x60>)
  400576:	6e8a      	ldr	r2, [r1, #104]	; 0x68
  400578:	f012 0f08 	tst.w	r2, #8
  40057c:	d103      	bne.n	400586 <pmc_switch_mck_to_pllack+0x2a>
			--ul_timeout) {
		if (ul_timeout == 0) {
  40057e:	3b01      	subs	r3, #1
  400580:	d1f9      	bne.n	400576 <pmc_switch_mck_to_pllack+0x1a>
			return 1;
  400582:	2001      	movs	r0, #1
  400584:	4770      	bx	lr
		}
	}

	PMC->PMC_MCKR = (PMC->PMC_MCKR & (~PMC_MCKR_CSS_Msk)) |
  400586:	4a0d      	ldr	r2, [pc, #52]	; (4005bc <pmc_switch_mck_to_pllack+0x60>)
  400588:	6b13      	ldr	r3, [r2, #48]	; 0x30
  40058a:	f023 0303 	bic.w	r3, r3, #3
  40058e:	f043 0302 	orr.w	r3, r3, #2
  400592:	6313      	str	r3, [r2, #48]	; 0x30
			PMC_MCKR_CSS_PLLA_CLK;

	for (ul_timeout = PMC_TIMEOUT; !(PMC->PMC_SR & PMC_SR_MCKRDY);
  400594:	6e93      	ldr	r3, [r2, #104]	; 0x68
  400596:	f013 0f08 	tst.w	r3, #8
  40059a:	d10a      	bne.n	4005b2 <pmc_switch_mck_to_pllack+0x56>
  40059c:	f44f 5380 	mov.w	r3, #4096	; 0x1000
  4005a0:	4906      	ldr	r1, [pc, #24]	; (4005bc <pmc_switch_mck_to_pllack+0x60>)
  4005a2:	6e8a      	ldr	r2, [r1, #104]	; 0x68
  4005a4:	f012 0f08 	tst.w	r2, #8
  4005a8:	d105      	bne.n	4005b6 <pmc_switch_mck_to_pllack+0x5a>
			--ul_timeout) {
		if (ul_timeout == 0) {
  4005aa:	3b01      	subs	r3, #1
  4005ac:	d1f9      	bne.n	4005a2 <pmc_switch_mck_to_pllack+0x46>
			return 1;
  4005ae:	2001      	movs	r0, #1
		}
	}

	return 0;
}
  4005b0:	4770      	bx	lr
	return 0;
  4005b2:	2000      	movs	r0, #0
  4005b4:	4770      	bx	lr
  4005b6:	2000      	movs	r0, #0
  4005b8:	4770      	bx	lr
  4005ba:	bf00      	nop
  4005bc:	400e0600 	.word	0x400e0600

004005c0 <pmc_switch_mainck_to_xtal>:
 */
void pmc_switch_mainck_to_xtal(uint32_t ul_bypass,
		uint32_t ul_xtal_startup_time)
{
	/* Enable Main Xtal oscillator */
	if (ul_bypass) {
  4005c0:	b9a0      	cbnz	r0, 4005ec <pmc_switch_mainck_to_xtal+0x2c>
		PMC->CKGR_MOR = (PMC->CKGR_MOR & ~CKGR_MOR_MOSCXTEN) |
				CKGR_MOR_KEY_PASSWD | CKGR_MOR_MOSCXTBY |
				CKGR_MOR_MOSCSEL;
	} else {
		PMC->CKGR_MOR = (PMC->CKGR_MOR & ~CKGR_MOR_MOSCXTBY) |
  4005c2:	480e      	ldr	r0, [pc, #56]	; (4005fc <pmc_switch_mainck_to_xtal+0x3c>)
  4005c4:	6a03      	ldr	r3, [r0, #32]
				CKGR_MOR_KEY_PASSWD | CKGR_MOR_MOSCXTEN |
				CKGR_MOR_MOSCXTST(ul_xtal_startup_time);
  4005c6:	0209      	lsls	r1, r1, #8
  4005c8:	b289      	uxth	r1, r1
				CKGR_MOR_KEY_PASSWD | CKGR_MOR_MOSCXTEN |
  4005ca:	4a0d      	ldr	r2, [pc, #52]	; (400600 <pmc_switch_mainck_to_xtal+0x40>)
  4005cc:	401a      	ands	r2, r3
  4005ce:	4b0d      	ldr	r3, [pc, #52]	; (400604 <pmc_switch_mainck_to_xtal+0x44>)
  4005d0:	4313      	orrs	r3, r2
  4005d2:	4319      	orrs	r1, r3
		PMC->CKGR_MOR = (PMC->CKGR_MOR & ~CKGR_MOR_MOSCXTBY) |
  4005d4:	6201      	str	r1, [r0, #32]
		/* Wait the Xtal to stabilize */
		while (!(PMC->PMC_SR & PMC_SR_MOSCXTS));
  4005d6:	4602      	mov	r2, r0
  4005d8:	6e93      	ldr	r3, [r2, #104]	; 0x68
  4005da:	f013 0f01 	tst.w	r3, #1
  4005de:	d0fb      	beq.n	4005d8 <pmc_switch_mainck_to_xtal+0x18>

		PMC->CKGR_MOR |= CKGR_MOR_KEY_PASSWD | CKGR_MOR_MOSCSEL;
  4005e0:	4a06      	ldr	r2, [pc, #24]	; (4005fc <pmc_switch_mainck_to_xtal+0x3c>)
  4005e2:	6a11      	ldr	r1, [r2, #32]
  4005e4:	4b08      	ldr	r3, [pc, #32]	; (400608 <pmc_switch_mainck_to_xtal+0x48>)
  4005e6:	430b      	orrs	r3, r1
  4005e8:	6213      	str	r3, [r2, #32]
  4005ea:	4770      	bx	lr
		PMC->CKGR_MOR = (PMC->CKGR_MOR & ~CKGR_MOR_MOSCXTEN) |
  4005ec:	4903      	ldr	r1, [pc, #12]	; (4005fc <pmc_switch_mainck_to_xtal+0x3c>)
  4005ee:	6a0b      	ldr	r3, [r1, #32]
				CKGR_MOR_KEY_PASSWD | CKGR_MOR_MOSCXTBY |
  4005f0:	4a06      	ldr	r2, [pc, #24]	; (40060c <pmc_switch_mainck_to_xtal+0x4c>)
  4005f2:	401a      	ands	r2, r3
  4005f4:	4b06      	ldr	r3, [pc, #24]	; (400610 <pmc_switch_mainck_to_xtal+0x50>)
  4005f6:	4313      	orrs	r3, r2
		PMC->CKGR_MOR = (PMC->CKGR_MOR & ~CKGR_MOR_MOSCXTEN) |
  4005f8:	620b      	str	r3, [r1, #32]
  4005fa:	4770      	bx	lr
  4005fc:	400e0600 	.word	0x400e0600
  400600:	ffc8fffc 	.word	0xffc8fffc
  400604:	00370001 	.word	0x00370001
  400608:	01370000 	.word	0x01370000
  40060c:	fec8fffc 	.word	0xfec8fffc
  400610:	01370002 	.word	0x01370002

00400614 <pmc_osc_is_ready_mainck>:
 * \retval 1 Xtal is ready.
 * \retval 0 Xtal is not ready.
 */
uint32_t pmc_osc_is_ready_mainck(void)
{
	return PMC->PMC_SR & PMC_SR_MOSCSELS;
  400614:	4b02      	ldr	r3, [pc, #8]	; (400620 <pmc_osc_is_ready_mainck+0xc>)
  400616:	6e98      	ldr	r0, [r3, #104]	; 0x68
}
  400618:	f400 3080 	and.w	r0, r0, #65536	; 0x10000
  40061c:	4770      	bx	lr
  40061e:	bf00      	nop
  400620:	400e0600 	.word	0x400e0600

00400624 <pmc_disable_pllack>:
void pmc_disable_pllack(void)
{
#if (SAM4C || SAM4CM || SAM4CP || SAMG)
	PMC->CKGR_PLLAR = CKGR_PLLAR_MULA(0);
#else
	PMC->CKGR_PLLAR = CKGR_PLLAR_ONE | CKGR_PLLAR_MULA(0);
  400624:	f04f 5200 	mov.w	r2, #536870912	; 0x20000000
  400628:	4b01      	ldr	r3, [pc, #4]	; (400630 <pmc_disable_pllack+0xc>)
  40062a:	629a      	str	r2, [r3, #40]	; 0x28
  40062c:	4770      	bx	lr
  40062e:	bf00      	nop
  400630:	400e0600 	.word	0x400e0600

00400634 <pmc_is_locked_pllack>:
 * \retval 0 Not locked.
 * \retval 1 Locked.
 */
uint32_t pmc_is_locked_pllack(void)
{
	return (PMC->PMC_SR & PMC_SR_LOCKA);
  400634:	4b02      	ldr	r3, [pc, #8]	; (400640 <pmc_is_locked_pllack+0xc>)
  400636:	6e98      	ldr	r0, [r3, #104]	; 0x68
}
  400638:	f000 0002 	and.w	r0, r0, #2
  40063c:	4770      	bx	lr
  40063e:	bf00      	nop
  400640:	400e0600 	.word	0x400e0600

00400644 <pmc_enable_periph_clk>:
 * \retval 0 Success.
 * \retval 1 Invalid parameter.
 */
uint32_t pmc_enable_periph_clk(uint32_t ul_id)
{
	if (ul_id > MAX_PERIPH_ID) {
  400644:	283f      	cmp	r0, #63	; 0x3f
  400646:	d81e      	bhi.n	400686 <pmc_enable_periph_clk+0x42>
		return 1;
	}

	if (ul_id < 32) {
  400648:	281f      	cmp	r0, #31
  40064a:	d80c      	bhi.n	400666 <pmc_enable_periph_clk+0x22>
		if ((PMC->PMC_PCSR0 & (1u << ul_id)) != (1u << ul_id)) {
  40064c:	4b11      	ldr	r3, [pc, #68]	; (400694 <pmc_enable_periph_clk+0x50>)
  40064e:	699a      	ldr	r2, [r3, #24]
  400650:	2301      	movs	r3, #1
  400652:	4083      	lsls	r3, r0
  400654:	4393      	bics	r3, r2
  400656:	d018      	beq.n	40068a <pmc_enable_periph_clk+0x46>
			PMC->PMC_PCER0 = 1 << ul_id;
  400658:	2301      	movs	r3, #1
  40065a:	fa03 f000 	lsl.w	r0, r3, r0
  40065e:	4b0d      	ldr	r3, [pc, #52]	; (400694 <pmc_enable_periph_clk+0x50>)
  400660:	6118      	str	r0, [r3, #16]
			PMC->PMC_PCER1 = 1 << ul_id;
		}
#endif
	}

	return 0;
  400662:	2000      	movs	r0, #0
  400664:	4770      	bx	lr
		ul_id -= 32;
  400666:	3820      	subs	r0, #32
		if ((PMC->PMC_PCSR1 & (1u << ul_id)) != (1u << ul_id)) {
  400668:	4b0a      	ldr	r3, [pc, #40]	; (400694 <pmc_enable_periph_clk+0x50>)
  40066a:	f8d3 2108 	ldr.w	r2, [r3, #264]	; 0x108
  40066e:	2301      	movs	r3, #1
  400670:	4083      	lsls	r3, r0
  400672:	4393      	bics	r3, r2
  400674:	d00b      	beq.n	40068e <pmc_enable_periph_clk+0x4a>
			PMC->PMC_PCER1 = 1 << ul_id;
  400676:	2301      	movs	r3, #1
  400678:	fa03 f000 	lsl.w	r0, r3, r0
  40067c:	4b05      	ldr	r3, [pc, #20]	; (400694 <pmc_enable_periph_clk+0x50>)
  40067e:	f8c3 0100 	str.w	r0, [r3, #256]	; 0x100
	return 0;
  400682:	2000      	movs	r0, #0
  400684:	4770      	bx	lr
		return 1;
  400686:	2001      	movs	r0, #1
  400688:	4770      	bx	lr
	return 0;
  40068a:	2000      	movs	r0, #0
  40068c:	4770      	bx	lr
  40068e:	2000      	movs	r0, #0
}
  400690:	4770      	bx	lr
  400692:	bf00      	nop
  400694:	400e0600 	.word	0x400e0600

00400698 <Dummy_Handler>:

/**
 * \brief Default interrupt handler for unused IRQs.
 */
void Dummy_Handler(void)
{
  400698:	e7fe      	b.n	400698 <Dummy_Handler>
	...

0040069c <Reset_Handler>:
{
  40069c:	b500      	push	{lr}
  40069e:	b083      	sub	sp, #12
        if (pSrc != pDest) {
  4006a0:	4b25      	ldr	r3, [pc, #148]	; (400738 <Reset_Handler+0x9c>)
  4006a2:	4a26      	ldr	r2, [pc, #152]	; (40073c <Reset_Handler+0xa0>)
  4006a4:	429a      	cmp	r2, r3
  4006a6:	d010      	beq.n	4006ca <Reset_Handler+0x2e>
                for (; pDest < &_erelocate;) {
  4006a8:	4b25      	ldr	r3, [pc, #148]	; (400740 <Reset_Handler+0xa4>)
  4006aa:	4a23      	ldr	r2, [pc, #140]	; (400738 <Reset_Handler+0x9c>)
  4006ac:	429a      	cmp	r2, r3
  4006ae:	d20c      	bcs.n	4006ca <Reset_Handler+0x2e>
  4006b0:	3b01      	subs	r3, #1
  4006b2:	1a9b      	subs	r3, r3, r2
  4006b4:	f023 0303 	bic.w	r3, r3, #3
  4006b8:	3304      	adds	r3, #4
  4006ba:	4413      	add	r3, r2
  4006bc:	491f      	ldr	r1, [pc, #124]	; (40073c <Reset_Handler+0xa0>)
                        *pDest++ = *pSrc++;
  4006be:	f851 0b04 	ldr.w	r0, [r1], #4
  4006c2:	f842 0b04 	str.w	r0, [r2], #4
                for (; pDest < &_erelocate;) {
  4006c6:	429a      	cmp	r2, r3
  4006c8:	d1f9      	bne.n	4006be <Reset_Handler+0x22>
        for (pDest = &_szero; pDest < &_ezero;) {
  4006ca:	4b1e      	ldr	r3, [pc, #120]	; (400744 <Reset_Handler+0xa8>)
  4006cc:	4a1e      	ldr	r2, [pc, #120]	; (400748 <Reset_Handler+0xac>)
  4006ce:	429a      	cmp	r2, r3
  4006d0:	d20a      	bcs.n	4006e8 <Reset_Handler+0x4c>
  4006d2:	3b01      	subs	r3, #1
  4006d4:	1a9b      	subs	r3, r3, r2
  4006d6:	f023 0303 	bic.w	r3, r3, #3
  4006da:	3304      	adds	r3, #4
  4006dc:	4413      	add	r3, r2
                *pDest++ = 0;
  4006de:	2100      	movs	r1, #0
  4006e0:	f842 1b04 	str.w	r1, [r2], #4
        for (pDest = &_szero; pDest < &_ezero;) {
  4006e4:	4293      	cmp	r3, r2
  4006e6:	d1fb      	bne.n	4006e0 <Reset_Handler+0x44>
        SCB->VTOR = ((uint32_t) pSrc & SCB_VTOR_TBLOFF_Msk);
  4006e8:	4a18      	ldr	r2, [pc, #96]	; (40074c <Reset_Handler+0xb0>)
  4006ea:	4b19      	ldr	r3, [pc, #100]	; (400750 <Reset_Handler+0xb4>)
  4006ec:	f023 037f 	bic.w	r3, r3, #127	; 0x7f
  4006f0:	6093      	str	r3, [r2, #8]
 */
__attribute__( ( always_inline ) ) __STATIC_INLINE uint32_t __get_PRIMASK(void)
{
  uint32_t result;

  __ASM volatile ("MRS %0, primask" : "=r" (result) );
  4006f2:	f3ef 8310 	mrs	r3, PRIMASK
static volatile uint32_t cpu_irq_critical_section_counter;
static volatile bool     cpu_irq_prev_interrupt_state;

static inline irqflags_t cpu_irq_save(void)
{
	volatile irqflags_t flags = cpu_irq_is_enabled();
  4006f6:	fab3 f383 	clz	r3, r3
  4006fa:	095b      	lsrs	r3, r3, #5
  4006fc:	9301      	str	r3, [sp, #4]
  __ASM volatile ("cpsid i" : : : "memory");
  4006fe:	b672      	cpsid	i
    This function ensures the apparent order of the explicit memory operations before
    and after the instruction, without ensuring their completion.
 */
__attribute__( ( always_inline ) ) __STATIC_INLINE void __DMB(void)
{
  __ASM volatile ("dmb");
  400700:	f3bf 8f5f 	dmb	sy
	cpu_irq_disable();
  400704:	2200      	movs	r2, #0
  400706:	4b13      	ldr	r3, [pc, #76]	; (400754 <Reset_Handler+0xb8>)
  400708:	701a      	strb	r2, [r3, #0]
	return flags;
  40070a:	9901      	ldr	r1, [sp, #4]
 */
__always_inline static void fpu_enable(void)
{
	irqflags_t flags;
	flags = cpu_irq_save();
	REG_CPACR |=  (0xFu << 20);
  40070c:	4a12      	ldr	r2, [pc, #72]	; (400758 <Reset_Handler+0xbc>)
  40070e:	6813      	ldr	r3, [r2, #0]
  400710:	f443 0370 	orr.w	r3, r3, #15728640	; 0xf00000
  400714:	6013      	str	r3, [r2, #0]
  __ASM volatile ("dsb");
  400716:	f3bf 8f4f 	dsb	sy
  __ASM volatile ("isb");
  40071a:	f3bf 8f6f 	isb	sy
	return (flags);
}

static inline void cpu_irq_restore(irqflags_t flags)
{
	if (cpu_irq_is_enabled_flags(flags))
  40071e:	b129      	cbz	r1, 40072c <Reset_Handler+0x90>
		cpu_irq_enable();
  400720:	2201      	movs	r2, #1
  400722:	4b0c      	ldr	r3, [pc, #48]	; (400754 <Reset_Handler+0xb8>)
  400724:	701a      	strb	r2, [r3, #0]
  __ASM volatile ("dmb");
  400726:	f3bf 8f5f 	dmb	sy
  __ASM volatile ("cpsie i" : : : "memory");
  40072a:	b662      	cpsie	i
        __libc_init_array();
  40072c:	4b0b      	ldr	r3, [pc, #44]	; (40075c <Reset_Handler+0xc0>)
  40072e:	4798      	blx	r3
        main();
  400730:	4b0b      	ldr	r3, [pc, #44]	; (400760 <Reset_Handler+0xc4>)
  400732:	4798      	blx	r3
  400734:	e7fe      	b.n	400734 <Reset_Handler+0x98>
  400736:	bf00      	nop
  400738:	20400000 	.word	0x20400000
  40073c:	00400c18 	.word	0x00400c18
  400740:	2040043c 	.word	0x2040043c
  400744:	204004f8 	.word	0x204004f8
  400748:	2040043c 	.word	0x2040043c
  40074c:	e000ed00 	.word	0xe000ed00
  400750:	00400000 	.word	0x00400000
  400754:	2040000a 	.word	0x2040000a
  400758:	e000ed88 	.word	0xe000ed88
  40075c:	00400a81 	.word	0x00400a81
  400760:	00400919 	.word	0x00400919

00400764 <SystemCoreClockUpdate>:
}

void SystemCoreClockUpdate( void )
{
  /* Determine clock frequency according to clock register values */
  switch (PMC->PMC_MCKR & (uint32_t) PMC_MCKR_CSS_Msk)
  400764:	4b3b      	ldr	r3, [pc, #236]	; (400854 <SystemCoreClockUpdate+0xf0>)
  400766:	6b1b      	ldr	r3, [r3, #48]	; 0x30
  400768:	f003 0303 	and.w	r3, r3, #3
  40076c:	2b01      	cmp	r3, #1
  40076e:	d01d      	beq.n	4007ac <SystemCoreClockUpdate+0x48>
  400770:	b183      	cbz	r3, 400794 <SystemCoreClockUpdate+0x30>
  400772:	2b02      	cmp	r3, #2
  400774:	d036      	beq.n	4007e4 <SystemCoreClockUpdate+0x80>

    default:
    break;
  }

  if ( (PMC->PMC_MCKR & PMC_MCKR_PRES_Msk) == PMC_MCKR_PRES_CLK_3 )
  400776:	4b37      	ldr	r3, [pc, #220]	; (400854 <SystemCoreClockUpdate+0xf0>)
  400778:	6b1b      	ldr	r3, [r3, #48]	; 0x30
  40077a:	f003 0370 	and.w	r3, r3, #112	; 0x70
  40077e:	2b70      	cmp	r3, #112	; 0x70
  400780:	d05f      	beq.n	400842 <SystemCoreClockUpdate+0xde>
  {
    SystemCoreClock /= 3U;
  }
  else
  {
    SystemCoreClock >>= ((PMC->PMC_MCKR & PMC_MCKR_PRES_Msk) >> PMC_MCKR_PRES_Pos);
  400782:	4b34      	ldr	r3, [pc, #208]	; (400854 <SystemCoreClockUpdate+0xf0>)
  400784:	6b1a      	ldr	r2, [r3, #48]	; 0x30
  400786:	4934      	ldr	r1, [pc, #208]	; (400858 <SystemCoreClockUpdate+0xf4>)
  400788:	f3c2 1202 	ubfx	r2, r2, #4, #3
  40078c:	680b      	ldr	r3, [r1, #0]
  40078e:	40d3      	lsrs	r3, r2
  400790:	600b      	str	r3, [r1, #0]
  400792:	4770      	bx	lr
      if ( SUPC->SUPC_SR & SUPC_SR_OSCSEL )
  400794:	4b31      	ldr	r3, [pc, #196]	; (40085c <SystemCoreClockUpdate+0xf8>)
  400796:	695b      	ldr	r3, [r3, #20]
  400798:	f013 0f80 	tst.w	r3, #128	; 0x80
        SystemCoreClock = CHIP_FREQ_XTAL_32K;
  40079c:	bf14      	ite	ne
  40079e:	f44f 4200 	movne.w	r2, #32768	; 0x8000
        SystemCoreClock = CHIP_FREQ_SLCK_RC;
  4007a2:	f44f 42fa 	moveq.w	r2, #32000	; 0x7d00
  4007a6:	4b2c      	ldr	r3, [pc, #176]	; (400858 <SystemCoreClockUpdate+0xf4>)
  4007a8:	601a      	str	r2, [r3, #0]
  4007aa:	e7e4      	b.n	400776 <SystemCoreClockUpdate+0x12>
      if ( PMC->CKGR_MOR & CKGR_MOR_MOSCSEL )
  4007ac:	4b29      	ldr	r3, [pc, #164]	; (400854 <SystemCoreClockUpdate+0xf0>)
  4007ae:	6a1b      	ldr	r3, [r3, #32]
  4007b0:	f013 7f80 	tst.w	r3, #16777216	; 0x1000000
  4007b4:	d003      	beq.n	4007be <SystemCoreClockUpdate+0x5a>
        SystemCoreClock = CHIP_FREQ_XTAL_12M;
  4007b6:	4a2a      	ldr	r2, [pc, #168]	; (400860 <SystemCoreClockUpdate+0xfc>)
  4007b8:	4b27      	ldr	r3, [pc, #156]	; (400858 <SystemCoreClockUpdate+0xf4>)
  4007ba:	601a      	str	r2, [r3, #0]
  4007bc:	e7db      	b.n	400776 <SystemCoreClockUpdate+0x12>
        SystemCoreClock = CHIP_FREQ_MAINCK_RC_4MHZ;
  4007be:	4a29      	ldr	r2, [pc, #164]	; (400864 <SystemCoreClockUpdate+0x100>)
  4007c0:	4b25      	ldr	r3, [pc, #148]	; (400858 <SystemCoreClockUpdate+0xf4>)
  4007c2:	601a      	str	r2, [r3, #0]
        switch ( PMC->CKGR_MOR & CKGR_MOR_MOSCRCF_Msk )
  4007c4:	4b23      	ldr	r3, [pc, #140]	; (400854 <SystemCoreClockUpdate+0xf0>)
  4007c6:	6a1b      	ldr	r3, [r3, #32]
  4007c8:	f003 0370 	and.w	r3, r3, #112	; 0x70
  4007cc:	2b10      	cmp	r3, #16
  4007ce:	d005      	beq.n	4007dc <SystemCoreClockUpdate+0x78>
  4007d0:	2b20      	cmp	r3, #32
  4007d2:	d1d0      	bne.n	400776 <SystemCoreClockUpdate+0x12>
            SystemCoreClock *= 3U;
  4007d4:	4a22      	ldr	r2, [pc, #136]	; (400860 <SystemCoreClockUpdate+0xfc>)
  4007d6:	4b20      	ldr	r3, [pc, #128]	; (400858 <SystemCoreClockUpdate+0xf4>)
  4007d8:	601a      	str	r2, [r3, #0]
          break;
  4007da:	e7cc      	b.n	400776 <SystemCoreClockUpdate+0x12>
            SystemCoreClock *= 2U;
  4007dc:	4a22      	ldr	r2, [pc, #136]	; (400868 <SystemCoreClockUpdate+0x104>)
  4007de:	4b1e      	ldr	r3, [pc, #120]	; (400858 <SystemCoreClockUpdate+0xf4>)
  4007e0:	601a      	str	r2, [r3, #0]
          break;
  4007e2:	e7c8      	b.n	400776 <SystemCoreClockUpdate+0x12>
      if ( PMC->CKGR_MOR & CKGR_MOR_MOSCSEL )
  4007e4:	4b1b      	ldr	r3, [pc, #108]	; (400854 <SystemCoreClockUpdate+0xf0>)
  4007e6:	6a1b      	ldr	r3, [r3, #32]
  4007e8:	f013 7f80 	tst.w	r3, #16777216	; 0x1000000
  4007ec:	d016      	beq.n	40081c <SystemCoreClockUpdate+0xb8>
        SystemCoreClock = CHIP_FREQ_XTAL_12M ;
  4007ee:	4a1c      	ldr	r2, [pc, #112]	; (400860 <SystemCoreClockUpdate+0xfc>)
  4007f0:	4b19      	ldr	r3, [pc, #100]	; (400858 <SystemCoreClockUpdate+0xf4>)
  4007f2:	601a      	str	r2, [r3, #0]
      if ( (uint32_t) (PMC->PMC_MCKR & (uint32_t) PMC_MCKR_CSS_Msk) == PMC_MCKR_CSS_PLLA_CLK )
  4007f4:	4b17      	ldr	r3, [pc, #92]	; (400854 <SystemCoreClockUpdate+0xf0>)
  4007f6:	6b1b      	ldr	r3, [r3, #48]	; 0x30
  4007f8:	f003 0303 	and.w	r3, r3, #3
  4007fc:	2b02      	cmp	r3, #2
  4007fe:	d1ba      	bne.n	400776 <SystemCoreClockUpdate+0x12>
        SystemCoreClock *= ((((PMC->CKGR_PLLAR) & CKGR_PLLAR_MULA_Msk) >> CKGR_PLLAR_MULA_Pos) + 1U);
  400800:	4a14      	ldr	r2, [pc, #80]	; (400854 <SystemCoreClockUpdate+0xf0>)
  400802:	6a91      	ldr	r1, [r2, #40]	; 0x28
        SystemCoreClock /= ((((PMC->CKGR_PLLAR) & CKGR_PLLAR_DIVA_Msk) >> CKGR_PLLAR_DIVA_Pos));
  400804:	6a92      	ldr	r2, [r2, #40]	; 0x28
  400806:	4814      	ldr	r0, [pc, #80]	; (400858 <SystemCoreClockUpdate+0xf4>)
        SystemCoreClock *= ((((PMC->CKGR_PLLAR) & CKGR_PLLAR_MULA_Msk) >> CKGR_PLLAR_MULA_Pos) + 1U);
  400808:	f3c1 410a 	ubfx	r1, r1, #16, #11
  40080c:	6803      	ldr	r3, [r0, #0]
  40080e:	fb01 3303 	mla	r3, r1, r3, r3
        SystemCoreClock /= ((((PMC->CKGR_PLLAR) & CKGR_PLLAR_DIVA_Msk) >> CKGR_PLLAR_DIVA_Pos));
  400812:	b2d2      	uxtb	r2, r2
  400814:	fbb3 f3f2 	udiv	r3, r3, r2
  400818:	6003      	str	r3, [r0, #0]
  40081a:	e7ac      	b.n	400776 <SystemCoreClockUpdate+0x12>
        SystemCoreClock = CHIP_FREQ_MAINCK_RC_4MHZ;
  40081c:	4a11      	ldr	r2, [pc, #68]	; (400864 <SystemCoreClockUpdate+0x100>)
  40081e:	4b0e      	ldr	r3, [pc, #56]	; (400858 <SystemCoreClockUpdate+0xf4>)
  400820:	601a      	str	r2, [r3, #0]
        switch ( PMC->CKGR_MOR & CKGR_MOR_MOSCRCF_Msk )
  400822:	4b0c      	ldr	r3, [pc, #48]	; (400854 <SystemCoreClockUpdate+0xf0>)
  400824:	6a1b      	ldr	r3, [r3, #32]
  400826:	f003 0370 	and.w	r3, r3, #112	; 0x70
  40082a:	2b10      	cmp	r3, #16
  40082c:	d005      	beq.n	40083a <SystemCoreClockUpdate+0xd6>
  40082e:	2b20      	cmp	r3, #32
  400830:	d1e0      	bne.n	4007f4 <SystemCoreClockUpdate+0x90>
            SystemCoreClock *= 3U;
  400832:	4a0b      	ldr	r2, [pc, #44]	; (400860 <SystemCoreClockUpdate+0xfc>)
  400834:	4b08      	ldr	r3, [pc, #32]	; (400858 <SystemCoreClockUpdate+0xf4>)
  400836:	601a      	str	r2, [r3, #0]
          break;
  400838:	e7dc      	b.n	4007f4 <SystemCoreClockUpdate+0x90>
            SystemCoreClock *= 2U;
  40083a:	4a0b      	ldr	r2, [pc, #44]	; (400868 <SystemCoreClockUpdate+0x104>)
  40083c:	4b06      	ldr	r3, [pc, #24]	; (400858 <SystemCoreClockUpdate+0xf4>)
  40083e:	601a      	str	r2, [r3, #0]
          break;
  400840:	e7d8      	b.n	4007f4 <SystemCoreClockUpdate+0x90>
    SystemCoreClock /= 3U;
  400842:	4a05      	ldr	r2, [pc, #20]	; (400858 <SystemCoreClockUpdate+0xf4>)
  400844:	6813      	ldr	r3, [r2, #0]
  400846:	4909      	ldr	r1, [pc, #36]	; (40086c <SystemCoreClockUpdate+0x108>)
  400848:	fba1 1303 	umull	r1, r3, r1, r3
  40084c:	085b      	lsrs	r3, r3, #1
  40084e:	6013      	str	r3, [r2, #0]
  400850:	4770      	bx	lr
  400852:	bf00      	nop
  400854:	400e0600 	.word	0x400e0600
  400858:	2040000c 	.word	0x2040000c
  40085c:	400e1810 	.word	0x400e1810
  400860:	00b71b00 	.word	0x00b71b00
  400864:	003d0900 	.word	0x003d0900
  400868:	007a1200 	.word	0x007a1200
  40086c:	aaaaaaab 	.word	0xaaaaaaab

00400870 <system_init_flash>:
 * Initialize flash.
 */
void system_init_flash( uint32_t ul_clk )
{
  /* Set FWS for embedded Flash access according to operating frequency */
  if ( ul_clk < CHIP_FREQ_FWS_0 )
  400870:	4b12      	ldr	r3, [pc, #72]	; (4008bc <system_init_flash+0x4c>)
  400872:	4298      	cmp	r0, r3
  400874:	d911      	bls.n	40089a <system_init_flash+0x2a>
  {
    EFC->EEFC_FMR = EEFC_FMR_FWS(0)|EEFC_FMR_CLOE;
  }
  else
  {
    if (ul_clk < CHIP_FREQ_FWS_1)
  400876:	4b12      	ldr	r3, [pc, #72]	; (4008c0 <system_init_flash+0x50>)
  400878:	4298      	cmp	r0, r3
  40087a:	d913      	bls.n	4008a4 <system_init_flash+0x34>
    {
      EFC->EEFC_FMR = EEFC_FMR_FWS(1)|EEFC_FMR_CLOE;
    }
    else
    {
      if (ul_clk < CHIP_FREQ_FWS_2)
  40087c:	4b11      	ldr	r3, [pc, #68]	; (4008c4 <system_init_flash+0x54>)
  40087e:	4298      	cmp	r0, r3
  400880:	d914      	bls.n	4008ac <system_init_flash+0x3c>
      {
        EFC->EEFC_FMR = EEFC_FMR_FWS(2)|EEFC_FMR_CLOE;
      }
      else
      {
        if ( ul_clk < CHIP_FREQ_FWS_3 )
  400882:	4b11      	ldr	r3, [pc, #68]	; (4008c8 <system_init_flash+0x58>)
  400884:	4298      	cmp	r0, r3
  400886:	d915      	bls.n	4008b4 <system_init_flash+0x44>
        {
          EFC->EEFC_FMR = EEFC_FMR_FWS(3)|EEFC_FMR_CLOE;
        }
        else
        {
          if ( ul_clk < CHIP_FREQ_FWS_4 )
  400888:	4b10      	ldr	r3, [pc, #64]	; (4008cc <system_init_flash+0x5c>)
  40088a:	4298      	cmp	r0, r3
          {
            EFC->EEFC_FMR = EEFC_FMR_FWS(4)|EEFC_FMR_CLOE;
  40088c:	bf94      	ite	ls
  40088e:	f04f 2204 	movls.w	r2, #67109888	; 0x4000400
          }
          else
          {
            EFC->EEFC_FMR = EEFC_FMR_FWS(5)|EEFC_FMR_CLOE;
  400892:	4a0f      	ldrhi	r2, [pc, #60]	; (4008d0 <system_init_flash+0x60>)
  400894:	4b0f      	ldr	r3, [pc, #60]	; (4008d4 <system_init_flash+0x64>)
  400896:	601a      	str	r2, [r3, #0]
  400898:	4770      	bx	lr
    EFC->EEFC_FMR = EEFC_FMR_FWS(0)|EEFC_FMR_CLOE;
  40089a:	f04f 6280 	mov.w	r2, #67108864	; 0x4000000
  40089e:	4b0d      	ldr	r3, [pc, #52]	; (4008d4 <system_init_flash+0x64>)
  4008a0:	601a      	str	r2, [r3, #0]
  4008a2:	4770      	bx	lr
      EFC->EEFC_FMR = EEFC_FMR_FWS(1)|EEFC_FMR_CLOE;
  4008a4:	4a0c      	ldr	r2, [pc, #48]	; (4008d8 <system_init_flash+0x68>)
  4008a6:	4b0b      	ldr	r3, [pc, #44]	; (4008d4 <system_init_flash+0x64>)
  4008a8:	601a      	str	r2, [r3, #0]
  4008aa:	4770      	bx	lr
        EFC->EEFC_FMR = EEFC_FMR_FWS(2)|EEFC_FMR_CLOE;
  4008ac:	4a0b      	ldr	r2, [pc, #44]	; (4008dc <system_init_flash+0x6c>)
  4008ae:	4b09      	ldr	r3, [pc, #36]	; (4008d4 <system_init_flash+0x64>)
  4008b0:	601a      	str	r2, [r3, #0]
  4008b2:	4770      	bx	lr
          EFC->EEFC_FMR = EEFC_FMR_FWS(3)|EEFC_FMR_CLOE;
  4008b4:	4a0a      	ldr	r2, [pc, #40]	; (4008e0 <system_init_flash+0x70>)
  4008b6:	4b07      	ldr	r3, [pc, #28]	; (4008d4 <system_init_flash+0x64>)
  4008b8:	601a      	str	r2, [r3, #0]
  4008ba:	4770      	bx	lr
  4008bc:	01312cff 	.word	0x01312cff
  4008c0:	026259ff 	.word	0x026259ff
  4008c4:	039386ff 	.word	0x039386ff
  4008c8:	04c4b3ff 	.word	0x04c4b3ff
  4008cc:	05f5e0ff 	.word	0x05f5e0ff
  4008d0:	04000500 	.word	0x04000500
  4008d4:	400e0c00 	.word	0x400e0c00
  4008d8:	04000100 	.word	0x04000100
  4008dc:	04000200 	.word	0x04000200
  4008e0:	04000300 	.word	0x04000300

004008e4 <but_callBack>:
volatile acionamento = false;



void but_callBack(void){
  but_flag = true;
  4008e4:	2201      	movs	r2, #1
  4008e6:	4b01      	ldr	r3, [pc, #4]	; (4008ec <but_callBack+0x8>)
  4008e8:	601a      	str	r2, [r3, #0]
  4008ea:	4770      	bx	lr
  4008ec:	204004d0 	.word	0x204004d0

004008f0 <ligaValvula>:
}

void ligaValvula(void){
  4008f0:	b508      	push	{r3, lr}
	pio_set(VAL_PIO, VAL_PIO_PIN_MASK);
  4008f2:	2110      	movs	r1, #16
  4008f4:	4801      	ldr	r0, [pc, #4]	; (4008fc <ligaValvula+0xc>)
  4008f6:	4b02      	ldr	r3, [pc, #8]	; (400900 <ligaValvula+0x10>)
  4008f8:	4798      	blx	r3
  4008fa:	bd08      	pop	{r3, pc}
  4008fc:	400e0e00 	.word	0x400e0e00
  400900:	0040021d 	.word	0x0040021d

00400904 <desligaValvula>:
}

void desligaValvula(void){
  400904:	b508      	push	{r3, lr}
	pio_clear(VAL_PIO, VAL_PIO_PIN_MASK);	
  400906:	2110      	movs	r1, #16
  400908:	4801      	ldr	r0, [pc, #4]	; (400910 <desligaValvula+0xc>)
  40090a:	4b02      	ldr	r3, [pc, #8]	; (400914 <desligaValvula+0x10>)
  40090c:	4798      	blx	r3
  40090e:	bd08      	pop	{r3, pc}
  400910:	400e0e00 	.word	0x400e0e00
  400914:	00400221 	.word	0x00400221

00400918 <main>:
/************************************************************************/
/* Main                                                                 */
/************************************************************************/

// Funcao principal chamada na inicalizacao do uC.
int main(void){
  400918:	e92d 47f0 	stmdb	sp!, {r4, r5, r6, r7, r8, r9, sl, lr}
  40091c:	b082      	sub	sp, #8
	
	sysclk_init();
  40091e:	4b44      	ldr	r3, [pc, #272]	; (400a30 <main+0x118>)
  400920:	4798      	blx	r3

	WDT->WDT_MR = WDT_MR_WDDIS;
  400922:	f44f 4200 	mov.w	r2, #32768	; 0x8000
  400926:	4b43      	ldr	r3, [pc, #268]	; (400a34 <main+0x11c>)
  400928:	605a      	str	r2, [r3, #4]
	
	pmc_enable_periph_clk(BUT_PIO_ID);
  40092a:	200a      	movs	r0, #10
  40092c:	4b42      	ldr	r3, [pc, #264]	; (400a38 <main+0x120>)
  40092e:	4798      	blx	r3
	
    //Saidas
	pio_configure(LED_VERMELHO_PIO ,PIO_OUTPUT_0, LED_VERMELHO_PIO_PIN_MASK, PIO_DEFAULT);
  400930:	2300      	movs	r3, #0
  400932:	f04f 4280 	mov.w	r2, #1073741824	; 0x40000000
  400936:	f04f 5140 	mov.w	r1, #805306368	; 0x30000000
  40093a:	4840      	ldr	r0, [pc, #256]	; (400a3c <main+0x124>)
  40093c:	4d40      	ldr	r5, [pc, #256]	; (400a40 <main+0x128>)
  40093e:	47a8      	blx	r5
	pio_configure(LED_VERDE_PIO, PIO_OUTPUT_0, LED_VERDE_PIO_PIN_MASK, PIO_DEFAULT);
  400940:	2300      	movs	r3, #0
  400942:	f44f 0280 	mov.w	r2, #4194304	; 0x400000
  400946:	f04f 5140 	mov.w	r1, #805306368	; 0x30000000
  40094a:	483e      	ldr	r0, [pc, #248]	; (400a44 <main+0x12c>)
  40094c:	47a8      	blx	r5
	pio_configure(VAL_PIO, PIO_OUTPUT_0, VAL_PIO_PIN_MASK, PIO_DEFAULT);
  40094e:	4c3e      	ldr	r4, [pc, #248]	; (400a48 <main+0x130>)
  400950:	2300      	movs	r3, #0
  400952:	2210      	movs	r2, #16
  400954:	f04f 5140 	mov.w	r1, #805306368	; 0x30000000
  400958:	4620      	mov	r0, r4
  40095a:	47a8      	blx	r5
	
    //Entradas
	pio_configure(BUT_PIO, PIO_INPUT, BUT_PIO_PIN_MASK, PIO_PULLUP);
  40095c:	2301      	movs	r3, #1
  40095e:	f44f 2200 	mov.w	r2, #524288	; 0x80000
  400962:	f04f 5120 	mov.w	r1, #671088640	; 0x28000000
  400966:	4620      	mov	r0, r4
  400968:	47a8      	blx	r5
	pio_configure(SENSOR_PIO, PIO_INPUT, SENSOR_PIO_PIN_MASK, PIO_DEFAULT);
  40096a:	2300      	movs	r3, #0
  40096c:	2208      	movs	r2, #8
  40096e:	f04f 5120 	mov.w	r1, #671088640	; 0x28000000
  400972:	4620      	mov	r0, r4
  400974:	47a8      	blx	r5
	
	//Comando
	pio_enable_interrupt(BUT_PIO, BUT_PIO_PIN_MASK);
  400976:	f44f 2100 	mov.w	r1, #524288	; 0x80000
  40097a:	4620      	mov	r0, r4
  40097c:	4b33      	ldr	r3, [pc, #204]	; (400a4c <main+0x134>)
  40097e:	4798      	blx	r3
	pio_handler_set(BUT_PIO, BUT_PIO_ID, BUT_PIO_PIN_MASK, PIO_IT_FALL_EDGE,  but_callBack);
  400980:	4b33      	ldr	r3, [pc, #204]	; (400a50 <main+0x138>)
  400982:	9300      	str	r3, [sp, #0]
  400984:	2350      	movs	r3, #80	; 0x50
  400986:	f44f 2200 	mov.w	r2, #524288	; 0x80000
  40098a:	210a      	movs	r1, #10
  40098c:	4620      	mov	r0, r4
  40098e:	4c31      	ldr	r4, [pc, #196]	; (400a54 <main+0x13c>)
  400990:	47a0      	blx	r4
    \param [in]      IRQn  External interrupt number. Value cannot be negative.
 */
__STATIC_INLINE void NVIC_EnableIRQ(IRQn_Type IRQn)
{
/*  NVIC->ISER[((uint32_t)(IRQn) >> 5)] = (1 << ((uint32_t)(IRQn) & 0x1F));  enable interrupt */
  NVIC->ISER[(uint32_t)((int32_t)IRQn) >> 5] = (uint32_t)(1 << ((uint32_t)((int32_t)IRQn) & (uint32_t)0x1F)); /* enable interrupt */
  400992:	4b31      	ldr	r3, [pc, #196]	; (400a58 <main+0x140>)
  400994:	f44f 6280 	mov.w	r2, #1024	; 0x400
  400998:	601a      	str	r2, [r3, #0]
__STATIC_INLINE void NVIC_SetPriority(IRQn_Type IRQn, uint32_t priority)
{
  if(IRQn < 0) {
    SCB->SHPR[((uint32_t)(IRQn) & 0xF)-4] = ((priority << (8 - __NVIC_PRIO_BITS)) & 0xff); } /* set Priority for Cortex-M  System Interrupts */
  else {
    NVIC->IP[(uint32_t)(IRQn)]            = ((priority << (8 - __NVIC_PRIO_BITS)) & 0xff); } /* set Priority for device specific Interrupts  */
  40099a:	2200      	movs	r2, #0
  40099c:	f883 230a 	strb.w	r2, [r3, #778]	; 0x30a
	
	NVIC_EnableIRQ(BUT_PIO_ID);
	NVIC_SetPriority(BUT_PIO_ID, 0);

	desligaValvula();
  4009a0:	4b2e      	ldr	r3, [pc, #184]	; (400a5c <main+0x144>)
  4009a2:	4798      	blx	r3
	
	// super loop
	// aplicacoes embarcadas no devem sair do while(1).
	while (1) {

		int y = pio_get(SENSOR_PIO, PIO_INPUT, SENSOR_PIO_PIN_MASK);
  4009a4:	f8df 90a0 	ldr.w	r9, [pc, #160]	; 400a48 <main+0x130>
  4009a8:	4e2d      	ldr	r6, [pc, #180]	; (400a60 <main+0x148>)

		//Botao como interrupitor, com deboucing
		if(but_flag){
			delay_ms(200);
  4009aa:	f8df a0d0 	ldr.w	sl, [pc, #208]	; 400a7c <main+0x164>
			acionamento = !acionamento;
  4009ae:	4c2d      	ldr	r4, [pc, #180]	; (400a64 <main+0x14c>)
	pio_set(p_pio, ul_mask);
  4009b0:	4f24      	ldr	r7, [pc, #144]	; (400a44 <main+0x12c>)
  4009b2:	f8df 8088 	ldr.w	r8, [pc, #136]	; 400a3c <main+0x124>
  4009b6:	e01e      	b.n	4009f6 <main+0xde>
			delay_ms(200);
  4009b8:	4650      	mov	r0, sl
  4009ba:	4b2b      	ldr	r3, [pc, #172]	; (400a68 <main+0x150>)
  4009bc:	4798      	blx	r3
			acionamento = !acionamento;
  4009be:	6823      	ldr	r3, [r4, #0]
  4009c0:	fab3 f383 	clz	r3, r3
  4009c4:	095b      	lsrs	r3, r3, #5
  4009c6:	6023      	str	r3, [r4, #0]
		
			but_flag = false;
  4009c8:	2200      	movs	r2, #0
  4009ca:	4b28      	ldr	r3, [pc, #160]	; (400a6c <main+0x154>)
  4009cc:	601a      	str	r2, [r3, #0]
  4009ce:	e01c      	b.n	400a0a <main+0xf2>
	pio_set(p_pio, ul_mask);
  4009d0:	f04f 4180 	mov.w	r1, #1073741824	; 0x40000000
  4009d4:	4640      	mov	r0, r8
  4009d6:	4b26      	ldr	r3, [pc, #152]	; (400a70 <main+0x158>)
  4009d8:	4798      	blx	r3
				 ligaLED(LED_VERMELHO_PIO, LED_VERMELHO_PIO_PIN_MASK);
				 ligaValvula();
			 }
			 else{
				 desligaLED(LED_VERMELHO_PIO, LED_VERMELHO_PIO_PIN_MASK);
				 desligaValvula();
  4009da:	4b20      	ldr	r3, [pc, #128]	; (400a5c <main+0x144>)
  4009dc:	4798      	blx	r3
  4009de:	e00a      	b.n	4009f6 <main+0xde>
			 }
		 }
	
		 else{
			 desligaValvula();
  4009e0:	4b1e      	ldr	r3, [pc, #120]	; (400a5c <main+0x144>)
  4009e2:	4798      	blx	r3
	pio_set(p_pio, ul_mask);
  4009e4:	f44f 0180 	mov.w	r1, #4194304	; 0x400000
  4009e8:	4638      	mov	r0, r7
  4009ea:	4d21      	ldr	r5, [pc, #132]	; (400a70 <main+0x158>)
  4009ec:	47a8      	blx	r5
  4009ee:	f04f 4180 	mov.w	r1, #1073741824	; 0x40000000
  4009f2:	4640      	mov	r0, r8
  4009f4:	47a8      	blx	r5
		int y = pio_get(SENSOR_PIO, PIO_INPUT, SENSOR_PIO_PIN_MASK);
  4009f6:	2208      	movs	r2, #8
  4009f8:	f04f 5120 	mov.w	r1, #671088640	; 0x28000000
  4009fc:	4648      	mov	r0, r9
  4009fe:	47b0      	blx	r6
  400a00:	4605      	mov	r5, r0
		if(but_flag){
  400a02:	4b1a      	ldr	r3, [pc, #104]	; (400a6c <main+0x154>)
  400a04:	681b      	ldr	r3, [r3, #0]
  400a06:	2b00      	cmp	r3, #0
  400a08:	d1d6      	bne.n	4009b8 <main+0xa0>
		 if(acionamento){
  400a0a:	6823      	ldr	r3, [r4, #0]
  400a0c:	2b00      	cmp	r3, #0
  400a0e:	d0e7      	beq.n	4009e0 <main+0xc8>
	pio_clear(p_pio, ul_mask);
  400a10:	f44f 0180 	mov.w	r1, #4194304	; 0x400000
  400a14:	4638      	mov	r0, r7
  400a16:	4b17      	ldr	r3, [pc, #92]	; (400a74 <main+0x15c>)
  400a18:	4798      	blx	r3
			 if(y){
  400a1a:	2d00      	cmp	r5, #0
  400a1c:	d0d8      	beq.n	4009d0 <main+0xb8>
	pio_clear(p_pio, ul_mask);
  400a1e:	f04f 4180 	mov.w	r1, #1073741824	; 0x40000000
  400a22:	4640      	mov	r0, r8
  400a24:	4b13      	ldr	r3, [pc, #76]	; (400a74 <main+0x15c>)
  400a26:	4798      	blx	r3
				 ligaValvula();
  400a28:	4b13      	ldr	r3, [pc, #76]	; (400a78 <main+0x160>)
  400a2a:	4798      	blx	r3
  400a2c:	e7e3      	b.n	4009f6 <main+0xde>
  400a2e:	bf00      	nop
  400a30:	004001ad 	.word	0x004001ad
  400a34:	400e1850 	.word	0x400e1850
  400a38:	00400645 	.word	0x00400645
  400a3c:	400e1200 	.word	0x400e1200
  400a40:	00400331 	.word	0x00400331
  400a44:	400e1400 	.word	0x400e1400
  400a48:	400e0e00 	.word	0x400e0e00
  400a4c:	004003f3 	.word	0x004003f3
  400a50:	004008e5 	.word	0x004008e5
  400a54:	00400451 	.word	0x00400451
  400a58:	e000e100 	.word	0xe000e100
  400a5c:	00400905 	.word	0x00400905
  400a60:	00400225 	.word	0x00400225
  400a64:	204004cc 	.word	0x204004cc
  400a68:	20400001 	.word	0x20400001
  400a6c:	204004d0 	.word	0x204004d0
  400a70:	0040021d 	.word	0x0040021d
  400a74:	00400221 	.word	0x00400221
  400a78:	004008f1 	.word	0x004008f1
  400a7c:	009a5649 	.word	0x009a5649

00400a80 <__libc_init_array>:
  400a80:	b570      	push	{r4, r5, r6, lr}
  400a82:	4e0f      	ldr	r6, [pc, #60]	; (400ac0 <__libc_init_array+0x40>)
  400a84:	4d0f      	ldr	r5, [pc, #60]	; (400ac4 <__libc_init_array+0x44>)
  400a86:	1b76      	subs	r6, r6, r5
  400a88:	10b6      	asrs	r6, r6, #2
  400a8a:	bf18      	it	ne
  400a8c:	2400      	movne	r4, #0
  400a8e:	d005      	beq.n	400a9c <__libc_init_array+0x1c>
  400a90:	3401      	adds	r4, #1
  400a92:	f855 3b04 	ldr.w	r3, [r5], #4
  400a96:	4798      	blx	r3
  400a98:	42a6      	cmp	r6, r4
  400a9a:	d1f9      	bne.n	400a90 <__libc_init_array+0x10>
  400a9c:	4e0a      	ldr	r6, [pc, #40]	; (400ac8 <__libc_init_array+0x48>)
  400a9e:	4d0b      	ldr	r5, [pc, #44]	; (400acc <__libc_init_array+0x4c>)
  400aa0:	1b76      	subs	r6, r6, r5
  400aa2:	f000 f8a7 	bl	400bf4 <_init>
  400aa6:	10b6      	asrs	r6, r6, #2
  400aa8:	bf18      	it	ne
  400aaa:	2400      	movne	r4, #0
  400aac:	d006      	beq.n	400abc <__libc_init_array+0x3c>
  400aae:	3401      	adds	r4, #1
  400ab0:	f855 3b04 	ldr.w	r3, [r5], #4
  400ab4:	4798      	blx	r3
  400ab6:	42a6      	cmp	r6, r4
  400ab8:	d1f9      	bne.n	400aae <__libc_init_array+0x2e>
  400aba:	bd70      	pop	{r4, r5, r6, pc}
  400abc:	bd70      	pop	{r4, r5, r6, pc}
  400abe:	bf00      	nop
  400ac0:	00400c00 	.word	0x00400c00
  400ac4:	00400c00 	.word	0x00400c00
  400ac8:	00400c08 	.word	0x00400c08
  400acc:	00400c00 	.word	0x00400c00

00400ad0 <register_fini>:
  400ad0:	4b02      	ldr	r3, [pc, #8]	; (400adc <register_fini+0xc>)
  400ad2:	b113      	cbz	r3, 400ada <register_fini+0xa>
  400ad4:	4802      	ldr	r0, [pc, #8]	; (400ae0 <register_fini+0x10>)
  400ad6:	f000 b805 	b.w	400ae4 <atexit>
  400ada:	4770      	bx	lr
  400adc:	00000000 	.word	0x00000000
  400ae0:	00400af1 	.word	0x00400af1

00400ae4 <atexit>:
  400ae4:	2300      	movs	r3, #0
  400ae6:	4601      	mov	r1, r0
  400ae8:	461a      	mov	r2, r3
  400aea:	4618      	mov	r0, r3
  400aec:	f000 b81e 	b.w	400b2c <__register_exitproc>

00400af0 <__libc_fini_array>:
  400af0:	b538      	push	{r3, r4, r5, lr}
  400af2:	4c0a      	ldr	r4, [pc, #40]	; (400b1c <__libc_fini_array+0x2c>)
  400af4:	4d0a      	ldr	r5, [pc, #40]	; (400b20 <__libc_fini_array+0x30>)
  400af6:	1b64      	subs	r4, r4, r5
  400af8:	10a4      	asrs	r4, r4, #2
  400afa:	d00a      	beq.n	400b12 <__libc_fini_array+0x22>
  400afc:	f104 4380 	add.w	r3, r4, #1073741824	; 0x40000000
  400b00:	3b01      	subs	r3, #1
  400b02:	eb05 0583 	add.w	r5, r5, r3, lsl #2
  400b06:	3c01      	subs	r4, #1
  400b08:	f855 3904 	ldr.w	r3, [r5], #-4
  400b0c:	4798      	blx	r3
  400b0e:	2c00      	cmp	r4, #0
  400b10:	d1f9      	bne.n	400b06 <__libc_fini_array+0x16>
  400b12:	e8bd 4038 	ldmia.w	sp!, {r3, r4, r5, lr}
  400b16:	f000 b877 	b.w	400c08 <_fini>
  400b1a:	bf00      	nop
  400b1c:	00400c18 	.word	0x00400c18
  400b20:	00400c14 	.word	0x00400c14

00400b24 <__retarget_lock_acquire_recursive>:
  400b24:	4770      	bx	lr
  400b26:	bf00      	nop

00400b28 <__retarget_lock_release_recursive>:
  400b28:	4770      	bx	lr
  400b2a:	bf00      	nop

00400b2c <__register_exitproc>:
  400b2c:	e92d 43f8 	stmdb	sp!, {r3, r4, r5, r6, r7, r8, r9, lr}
  400b30:	4d2c      	ldr	r5, [pc, #176]	; (400be4 <__register_exitproc+0xb8>)
  400b32:	4606      	mov	r6, r0
  400b34:	6828      	ldr	r0, [r5, #0]
  400b36:	4698      	mov	r8, r3
  400b38:	460f      	mov	r7, r1
  400b3a:	4691      	mov	r9, r2
  400b3c:	f7ff fff2 	bl	400b24 <__retarget_lock_acquire_recursive>
  400b40:	4b29      	ldr	r3, [pc, #164]	; (400be8 <__register_exitproc+0xbc>)
  400b42:	681c      	ldr	r4, [r3, #0]
  400b44:	f8d4 3148 	ldr.w	r3, [r4, #328]	; 0x148
  400b48:	2b00      	cmp	r3, #0
  400b4a:	d03e      	beq.n	400bca <__register_exitproc+0x9e>
  400b4c:	685a      	ldr	r2, [r3, #4]
  400b4e:	2a1f      	cmp	r2, #31
  400b50:	dc1c      	bgt.n	400b8c <__register_exitproc+0x60>
  400b52:	f102 0e01 	add.w	lr, r2, #1
  400b56:	b176      	cbz	r6, 400b76 <__register_exitproc+0x4a>
  400b58:	eb03 0182 	add.w	r1, r3, r2, lsl #2
  400b5c:	2401      	movs	r4, #1
  400b5e:	f8c1 9088 	str.w	r9, [r1, #136]	; 0x88
  400b62:	f8d3 0188 	ldr.w	r0, [r3, #392]	; 0x188
  400b66:	4094      	lsls	r4, r2
  400b68:	4320      	orrs	r0, r4
  400b6a:	2e02      	cmp	r6, #2
  400b6c:	f8c3 0188 	str.w	r0, [r3, #392]	; 0x188
  400b70:	f8c1 8108 	str.w	r8, [r1, #264]	; 0x108
  400b74:	d023      	beq.n	400bbe <__register_exitproc+0x92>
  400b76:	3202      	adds	r2, #2
  400b78:	f8c3 e004 	str.w	lr, [r3, #4]
  400b7c:	6828      	ldr	r0, [r5, #0]
  400b7e:	f843 7022 	str.w	r7, [r3, r2, lsl #2]
  400b82:	f7ff ffd1 	bl	400b28 <__retarget_lock_release_recursive>
  400b86:	2000      	movs	r0, #0
  400b88:	e8bd 83f8 	ldmia.w	sp!, {r3, r4, r5, r6, r7, r8, r9, pc}
  400b8c:	4b17      	ldr	r3, [pc, #92]	; (400bec <__register_exitproc+0xc0>)
  400b8e:	b30b      	cbz	r3, 400bd4 <__register_exitproc+0xa8>
  400b90:	f44f 70c8 	mov.w	r0, #400	; 0x190
  400b94:	f3af 8000 	nop.w
  400b98:	4603      	mov	r3, r0
  400b9a:	b1d8      	cbz	r0, 400bd4 <__register_exitproc+0xa8>
  400b9c:	f8d4 2148 	ldr.w	r2, [r4, #328]	; 0x148
  400ba0:	6002      	str	r2, [r0, #0]
  400ba2:	2100      	movs	r1, #0
  400ba4:	6041      	str	r1, [r0, #4]
  400ba6:	460a      	mov	r2, r1
  400ba8:	f8c4 0148 	str.w	r0, [r4, #328]	; 0x148
  400bac:	f04f 0e01 	mov.w	lr, #1
  400bb0:	f8c0 1188 	str.w	r1, [r0, #392]	; 0x188
  400bb4:	f8c0 118c 	str.w	r1, [r0, #396]	; 0x18c
  400bb8:	2e00      	cmp	r6, #0
  400bba:	d0dc      	beq.n	400b76 <__register_exitproc+0x4a>
  400bbc:	e7cc      	b.n	400b58 <__register_exitproc+0x2c>
  400bbe:	f8d3 118c 	ldr.w	r1, [r3, #396]	; 0x18c
  400bc2:	430c      	orrs	r4, r1
  400bc4:	f8c3 418c 	str.w	r4, [r3, #396]	; 0x18c
  400bc8:	e7d5      	b.n	400b76 <__register_exitproc+0x4a>
  400bca:	f504 73a6 	add.w	r3, r4, #332	; 0x14c
  400bce:	f8c4 3148 	str.w	r3, [r4, #328]	; 0x148
  400bd2:	e7bb      	b.n	400b4c <__register_exitproc+0x20>
  400bd4:	6828      	ldr	r0, [r5, #0]
  400bd6:	f7ff ffa7 	bl	400b28 <__retarget_lock_release_recursive>
  400bda:	f04f 30ff 	mov.w	r0, #4294967295
  400bde:	e8bd 83f8 	ldmia.w	sp!, {r3, r4, r5, r6, r7, r8, r9, pc}
  400be2:	bf00      	nop
  400be4:	20400438 	.word	0x20400438
  400be8:	00400bf0 	.word	0x00400bf0
  400bec:	00000000 	.word	0x00000000

00400bf0 <_global_impure_ptr>:
  400bf0:	20400010                                ..@ 

00400bf4 <_init>:
  400bf4:	b5f8      	push	{r3, r4, r5, r6, r7, lr}
  400bf6:	bf00      	nop
  400bf8:	bcf8      	pop	{r3, r4, r5, r6, r7}
  400bfa:	bc08      	pop	{r3}
  400bfc:	469e      	mov	lr, r3
  400bfe:	4770      	bx	lr

00400c00 <__init_array_start>:
  400c00:	00400ad1 	.word	0x00400ad1

00400c04 <__frame_dummy_init_array_entry>:
  400c04:	00400165                                e.@.

00400c08 <_fini>:
  400c08:	b5f8      	push	{r3, r4, r5, r6, r7, lr}
  400c0a:	bf00      	nop
  400c0c:	bcf8      	pop	{r3, r4, r5, r6, r7}
  400c0e:	bc08      	pop	{r3}
  400c10:	469e      	mov	lr, r3
  400c12:	4770      	bx	lr

00400c14 <__fini_array_start>:
  400c14:	00400141 	.word	0x00400141

Disassembly of section .relocate:

20400000 <portable_delay_cycles>:
RAMFUNC
void portable_delay_cycles(unsigned long n)
{
	UNUSED(n);

	__asm (
20400000:	f3bf 8f5f 	dmb	sy
20400004:	3801      	subs	r0, #1
20400006:	d1fb      	bne.n	20400000 <portable_delay_cycles>
20400008:	4770      	bx	lr

2040000a <g_interrupt_enabled>:
2040000a:	0001                                        ..

2040000c <SystemCoreClock>:
2040000c:	0900 003d                                   ..=.

20400010 <impure_data>:
20400010:	0000 0000 02fc 2040 0364 2040 03cc 2040     ......@ d.@ ..@ 
	...
204000b8:	0001 0000 0000 0000 330e abcd 1234 e66d     .........3..4.m.
204000c8:	deec 0005 000b 0000 0000 0000 0000 0000     ................
	...

20400438 <__atexit_recursive_mutex>:
20400438:	04d4 2040                                   ..@ 
